:040000004CEF00F0D1
:060008005F8288ED24F088
:100018005F80D8CF60F0E8CF61F0E0CF62F0F2A463
:1000280018EF00F01AEF00F044EF00F0010E4E2434
:100038004E6E000E4F204F6EEB0E4E5C010E4F5869
:10004800D8A029EF00F02BEF00F02FEF00F0000E02
:100058004F6E000E4E6E010100514E5C000E4F585F
:10006800D8B039EF00F03BEF00F03EEF00F08C80A5
:100078003FEF00F08C90000ED76E320ED66EF294E1
:1000880062C0E0FF61C0E8FF60C0D8FF5F90100069
:10009800ABEF22F00001D66BAEC0D7F0AFC0D8F0FE
:1000A800B0C0D9F0B1C0DAF0DABF5FEF00F05DEFB1
:1000B80000F073EF00F0010ED66FD7C063F0D8C020
:1000C80064F0D9C065F0DAC066F0A8EC25F063C02A
:1000D800D7F064C0D8F065C0D9F066C0DAF0000E79
:1000E8000001DC6F000EDB6F4AC0C6F04BC0C7F0E2
:1000F800D651D8B482EF00F084EF00F098EF00F00A
:10010800D651D8A48AEF00F08CEF00F092EF00F0FF
:10011800000EBC6F2B0EBB6F96EF00F0000EBC6F8D
:100128002D0EBB6FBBC0D6F0D7C063F0D8C064F04B
:10013800D9C065F0DAC066F033EC1EF00001630543
:100148006411D8A4AAEF00F0ACEF00F0DEEF00F0E5
:10015800D651D8B4B2EF00F0B4EF00F0BDEF00F024
:10016800D6C017F1C607D8A0C707000EDC6F010E6E
:10017800DB6F170EDB25636F010EDC21646FF30E56
:10018800656F7F0E666F8BEC25F00001FD0EC627AC
:10019800FF0EC723ACC073F0ADC074F0170E756FB7
:1001A800010E766FC6C077F0C7C078F007EC21F073
:1001B80080EF05F0D7C063F0D8C064F0D9C065F00F
:1001C800DAC066F033EC1EF0000163516411D8A464
:1001D800F0EF00F0F2EF00F011EF01F0D651D8B4D3
:1001E800F8EF00F0FAEF00F003EF01F0D6C017F1D6
:1001F800C607D8A0C707000EDC6F010EDB6F170E0D
:10020800DB25636F010EDC21646FF70E656F7F0ECF
:10021800666F8BEC25F0C9EF00F0000EDD6F000E65
:10022800DE6F800EDF6F3F0EE06F000EC56F000EB1
:10023800C46FD7C063F0D8C064F0D9C065F0DAC025
:1002480066F0000E676F000E686F000E696F000E93
:100258006A6FB1EC20F00001D8B035EF01F037EF4C
:1002680001F019EF02F043EF01F0C8C0DDF0C9C09A
:10027800DEF0CAC0DFF0CBC0E0F0C44BC52BDDC058
:1002880063F0DEC064F0DFC065F0E0C066F0000E29
:10029800676F000E686F200E696F410E6A6F33EC4E
:1002A8000CF063C0C8F064C0C9F065C0CAF066C08D
:1002B800CBF00001C851D75D636FC951D859646F3D
:1002C800CA51D959656FCB51DA59666FB5EC23F02D
:1002D800000166BF7BEF01F066516511641109E109
:1002E800020E635DD8A07BEF01F07DEF01F039EFDE
:1002F80001F0C8C07CF0C9C07DF0CAC07EF0CBC098
:100308007FF0D7C080F0D8C081F0D9C082F0DAC0C1
:1003180083F0B0EC1DF00001D8A095EF01F097EF45
:1003280001F039EF01F0DD51D75D636FDE51D85927
:10033800646FDF51D959656FE051DA59666FB5ECD2
:1003480023F0000166BFB6EF01F066516511641134
:1003580007E1020E635DD8B0B4EF01F0B6EF01F02B
:10036800FFEF01F0DDC0D7F0DEC0D8F0DFC0D9F074
:10037800E0C0DAF019EF02F0DDC07FF0DEC080F0F7
:10038800DFC081F0E0C082F0000E836F000E846F42
:10039800200E856F410E866F47EC10F07FC0DDF0B0
:1003A80080C0DEF081C0DFF082C0E0F00001C40749
:1003B800D8A0C507DD51D75D636FDE51D859646F8A
:1003C800DF51D959656FE051DA59666FB5EC23F002
:1003D800000166BFFDEF01F066516511641107E188
:1003E800020E635DD8B0FBEF01F0FDEF01F0FFEF07
:1003F80001F0B6EF01F0D7C07CF0D8C07DF0D9C0CD
:100408007EF0DAC07FF0DDC080F0DEC081F0DFC0B2
:1004180082F0E0C083F0B0EC1DF00001D8A017EF27
:1004280002F019EF02F0C0EF01F0B2C0BEF0BEC09A
:10043800BFF0FBBF22EF02F024EF02F02AEF02F038
:10044800FAC0B7F0FBC0B8F02EEF02F0000EB86F9C
:10045800060EB76FB7C0C2F0B8C0C3F0C24BC32B0B
:10046800660EBF19D8A43BEF02F03DEF02F05DEF36
:1004780002F0C5BF44EF02F042EF02F050EF02F085
:10048800000EDD6F000EDE6F800EDF6F3F0EE06F37
:10049800000EC56F000EC46F670EBE19D8B457EFB3
:1004A80002F059EF02F05DEF02F0C451C227C551C6
:1004B800C323000ED56F000ED46FD7C0CCF0D8C0C0
:1004C800CDF0D9C0CEF0DAC0CFF0DDC0C8F0DEC0C4
:1004D800C9F0DFC0CAF0E0C0CBF0EFEF02F0CCC04B
:1004E8007FF0CDC080F0CEC081F0CFC082F0DDC0FB
:1004F80083F0DEC084F0DFC085F0E0C086F047EC12
:1005080010F07FC098F080C099F081C09AF082C046
:100518009BF0CAEC16F098C0D0F099C0D1F09AC000
:10052800D2F09BC0D3F0D0C063F0D1C064F0D2C089
:1005380065F0D3C066F02CEC1DF063C0C0F064C059
:10054800C1F0CCC07CF0CDC07DF0CEC07EF0CFC075
:100558007FF0D0C067F0D1C068F0D2C069F0D3C0D6
:100568006AF0DDC063F0DEC064F0DFC065F0E0C0B3
:1005780066F033EC0CF063C080F064C081F065C0B5
:1005880082F066C083F023EC25F07CC0CCF07DC0FF
:10059800CDF07EC0CEF07FC0CFF0DDC07FF0DEC0F2
:1005A80080F0DFC081F0E0C082F0000E0001836FB0
:1005B800000E846F200E856F410E866F47EC10F099
:1005C8007FC0DDF080C0DEF081C0DFF082C0E0F0E7
:1005D8000001D44BD52BC251D45DD551800AB36FDD
:1005E800C351800AB359D8A0FCEF02F0FEEF02F025
:1005F80073EF02F0DDC063F0DEC064F0DFC065F0C9
:10060800E0C066F0000E676F000E686FA00E696F9D
:10061800400E6A6F33EC0CF063C0D0F064C0D1F0C8
:1006280065C0D2F066C0D3F0CCC07CF0CDC07DF000
:10063800CEC07EF0CFC07FF0D0C080F0D1C081F0B6
:10064800D2C082F0D3C083F0B0EC1DF00001D8B066
:1006580030EF03F032EF03F03CEF03F0000ED06F01
:10066800000ED16F000ED26F000ED36F65EF03F04E
:10067800CCC063F0CDC064F0CEC065F0CFC066F0EA
:10068800D0C067F0D1C068F0D2C069F0D3C06AF0BA
:10069800B1EC20F00001D8A054EF03F056EF03F0BE
:1006A80065EF03F0C0B15BEF03F05DEF03F065EFBA
:1006B80003F0000ED06F000ED16F000ED26F000E47
:1006C800D36FD7C063F0D8C064F0D9C065F0DAC082
:1006D80066F0D0C067F0D1C068F0D2C069F0D3C06E
:1006E8006AF081EC05F063C0CCF064C0CDF065C061
:1006F800CEF066C0CFF0CCC07CF0CDC07DF0CEC0CF
:100708007EF0CFC07FF0000E0001676F000E686FAB
:10071800200E696F410E6A6FC8C063F0C9C064F0EB
:10072800CAC065F0CBC066F033EC0CF063C080F053
:1007380064C081F065C082F066C083F0B0EC1DF043
:100748000001D8A0AAEF03F0ACEF03F0D4EF03F058
:10075800C44BC52BC8C063F0C9C064F0CAC065F0FB
:10076800CBC066F0000E676F000E686F200E696FD1
:10077800410E6A6F33EC0CF063C0C8F064C0C9F076
:1007880065C0CAF066C0CBF0660E0001BF19D8A4D8
:10079800D0EF03F0D2EF03F0D4EF03F0C24BC32B3A
:1007A800C8C0DDF0C9C0DEF0CAC0DFF0CBC0E0F0E1
:1007B800C4C0B5F0C5C0B6F0BD6B000EBA6F000E70
:1007C800B96F000ED56F000ED46FD1EF04F0CCC016
:1007D8007FF0CDC080F0CEC081F0CFC082F0DDC008
:1007E80083F0DEC084F0DFC085F0E0C086F047EC1F
:1007F80010F07FC098F080C099F081C09AF082C054
:100808009BF0CAEC16F098C0D0F099C0D1F09AC00D
:10081800D2F09BC0D3F0D0C063F0D1C064F0D2C096
:1008280065F0D3C066F02CEC1DF0000164BF28EF22
:1008380004F0645107E10A0E635DD8B026EF04F0B6
:1008480028EF04F038EF04F0D0C063F0D1C064F0B2
:10085800D2C065F0D3C066F02CEC1DF063C0C0F0C8
:1008680064C0C1F03CEF04F0000EC16F090EC06F08
:100878000001BD51D8A443EF04F045EF04F06DEF3B
:1008880004F0B6BF4CEF04F04AEF04F06DEF04F04B
:10089800170EDB25D96E010EDC21DA6E2E0EDF6E07
:1008A800DB4BDC2BC607D8A0C707010EBD6F6DEF69
:1008B80004F0170EDB25D96E010EDC21DA6E300E3E
:1008C800DF6EDB4BDC2BC607D8A0C707B907D8A05B
:1008D800BA07B951BA11D8A474EF04F076EF04F04E
:1008E8005DEF04F0170EDB25D96E010EDC21DA6E00
:1008F800C051300FDF6EDB4BDC2BC607D8A0C70713
:10090800CCC07CF0CDC07DF0CEC07EF0CFC07FF0F3
:10091800D0C067F0D1C068F0D2C069F0D3C06AF027
:10092800DDC063F0DEC064F0DFC065F0E0C066F0F3
:1009380033EC0CF063C080F064C081F065C082F0D5
:1009480066C083F023EC25F07CC0CCF07DC0CDF0F0
:100958007EC0CEF07FC0CFF0DDC07FF0DEC080F07B
:10096800DFC081F0E0C082F0000E0001836F000E4E
:10097800846F200E856F410E866F47EC10F07FC0A4
:10098800DDF080C0DEF081C0DFF082C0E0F0000161
:10099800B507D8A0B607D44BD52BC251D45DD551D5
:1009A800800AB36FC351800AB359D8B0DEEF04F0A0
:1009B800E0EF04F0EEEF04F0DCBFECEF04F0DC5104
:1009C80009E14B0EDB5DD8A0ECEF04F0EEEF04F08C
:1009D800EBEF03F0000ED56F4F0ED46F170ED42532
:1009E800D96E010ED521DA6EDF6A170EB36F010ECC
:1009F800B46FDB51B35FDC51B45BD451B325636F83
:100A0800D551B421646F170E656F010E666FDBC098
:100A180067F0DCC068F036EC24F00001DB51D45DEF
:100A2800DB6FDC51D559DC6FD651D8A41EEF05F029
:100A380021EF05F0010E22EF05F0000ED46FD56B03
:100A4800FCA329EF05F02BEF05F059EF05F03BEF7C
:100A580005F0DB07D8A0DC07170EDB25D96E010EE1
:100A6800DC21DA6E300EDF6EC607D8A0C707C65184
:100A7800D45DD551800AB36FC751800AB359D8B035
:100A880048EF05F04AEF05F059EF05F0DB51D45D6A
:100A9800D551800AB36FDC51800AB359D8A057EFFB
:100AA80005F059EF05F02DEF05F0D651D8B45FEFFA
:100AB80005F061EF05F06CEF05F0DB07D8A0DC0767
:100AC800170EDB25D96E010EDC21DA6ED6C0DFFFEA
:100AD800D451C65FD551C75BACC073F0ADC074F0DC
:100AE800170EDB25756F010EDC21766FC6C077F017
:100AF800C7C078F007EC21F0120000016651800BA6
:100B08006F6F66516625716F65AF8DEF05F08FEFDA
:100B180005F090EF05F071817151D8B496EF05F0AA
:100B280098EF05F0ACEF05F07129D8A49EEF05F019
:100B3800A0EF05F0A8EF05F0000E636F000E646FDC
:100B4800000E656F000E666F658F666BB4EF05F07B
:100B5800000E636F000E646F000E656F000E666F07
:100B68006A51800B706F6F517019D8B4BEEF05F0E1
:100B7800C0EF05F0C1EF05F06F8D6A516A25706FFF
:100B880069AFC9EF05F0CBEF05F0CCEF05F0708148
:100B98007051D8B4D2EF05F0D4EF05F0E8EF05F0C6
:100BA8007029D8A4DAEF05F0DCEF05F0E4EF05F0E2
:100BB800000E676F000E686F000E696F000E6A6F97
:100BC800698F6A6BF0EF05F0000E676F000E686FB3
:100BD800000E696F000E6A6F7151705DD8B0F7EF43
:100BE80005F0F9EF05F020EF06F06FADFEEF05F028
:100BF80000EF06F002EF06F0800E6F1B71C072F076
:100C080070C071F072C070F063C072F067C063F0BA
:100C180072C067F064C072F068C064F072C068F0B7
:100C280065C072F069C065F072C069F066C072F0A4
:100C38006AC066F072C06AF0726B715170C06BF076
:100C48006C6B6B5F000E6C5B6CBF34EF06F06C5125
:100C580009E11A0E6B5DD8A034EF06F036EF06F006
:100C68006DEF06F06351641165116611D8A43FEF6A
:100C780006F042EF06F0010E43EF06F0000E726F29
:100C8800000E636F000E646F000E656F000E666FD6
:100C980070C071F076EF06F072A155EF06F057EFCD
:100CA80006F05DEF06F0D89072310109726F5FEFC0
:100CB80006F0D890723363A164EF06F066EF06F091
:100CC80067EF06F0728F66356633653364336333D6
:100CD800712B7051715DD8A074EF06F076EF06F0B5
:100CE80050EF06F06FBD7BEF06F07DEF06F0BDEF2D
:100CF80006F07151D8A483EF06F085EF06F08FEF68
:100D080006F0000E636F000E646F000E656F000E34
:100D1800666FDCEF07F067516327685164236951F8
:100D280065236A51662366A19CEF06F09EEF06F0E4
:100D38004AEF07F072A1A3EF06F0A5EF06F0ABEFBC
:100D480006F0D89072310109726FADEF06F0D890B5
:100D5800723363A1B2EF06F0B4EF06F0B5EF06F018
:100D6800728F66356633653364336333712B4AEFAC
:100D780007F06751635D6851645969516559665157
:100D8800800A6B6F6A51800A6B59D8B0CEEF06F0B3
:100D9800D0EF06F0FBEF06F06351675D6B6F6451AF
:100DA80068596C6F655169596D6F66516A596E6FF4
:100DB800FF0E6B25636FFF0E6C21646FFF0E6D21B4
:100DC800656FFF0E6E21666F800E6F1B726D72511C
:100DD800D8A4F1EF06F0F3EF06F003EF07F0010EE9
:100DE8006327000E64236523662303EF07F067512A
:100DF800635F6851645B6951655B6A51665B635107
:100E0800641165116611D8A40CEF07F00EEF07F016
:100E180043EF07F07251D8A414EF07F016EF07F06C
:100E280043EF07F0000E636F000E646F000E656FEE
:100E3800000E666FDCEF07F0D890633764376537CC
:100E4800663772AF2AEF07F02CEF07F02DEF07F0A7
:100E5800638172A132EF07F034EF07F038EF07F043
:100E6800D88072373AEF07F0D89072377151D8B4FA
:100E780040EF07F042EF07F043EF07F0710765AF67
:100E880048EF07F04AEF07F020EF07F0706B72AFFA
:100E980050EF07F052EF07F06AEF07F072C06BF0FF
:100EA8007F0E6B17D8B45BEF07F05DEF07F061EFCB
:100EB80007F0010E706F6AEF07F063A166EF07F0A5
:100EC80068EF07F06AEF07F05DEF07F07051D8B4EC
:100ED80070EF07F072EF07F09DEF07F0010E632740
:100EE800000E64236523662366A17DEF07F07FEF7C
:100EF80007F09DEF07F063C06BF064C06CF065C04D
:100F08006DF066C06EF06E356E336D336C336B33D7
:100F18006BC063F06CC064F06DC065F06EC066F0C5
:100F28007129D8B49AEF07F09CEF07F09DEF07F00E
:100F3800712B7129D8B4A3EF07F0A5EF07F0ADEF37
:100F480007F07151D8A4ABEF07F0ADEF07F0BEEF93
:100F580007F0000E636F000E646F000E656F000EE1
:100F6800666F7151D8A4BBEF07F0BDEF07F0BEEF75
:100F780007F06F6B71A1C3EF07F0C5EF07F0C8EF7B
:100F880007F0658FC9EF07F0659FD8907131666FDC
:100F98006FAFD1EF07F0D3EF07F0D4EF07F0668F0C
:100FA80063C063F064C064F065C065F066C066F055
:100FB80012000001E351D96EDA6ADECFF6FFDDCF09
:100FC800F7FF0800F550250AD8A4EDEF07F0EFEF7A
:100FD80007F0FDEF09F0E351D96EDA6ADE2A000E58
:100FE800DD22000E4B6E000E4A6E4AC0FCF0FA6914
:100FF800FB69ED6B1CEF08F0FC83E351D96EDA6AEC
:10100800DE2A000EDD221CEF08F0010EED6F1CEF4A
:1010180008F0E351D96EDA6ADECFF6FFDDCFF7FFCD
:101028000800F550300AD8B400EF08F009EF08F0CE
:10103800ED51D8B422EF08F024EF08F00DEF08F0D6
:10104800E3C063F0E4C064F0E5C065F059EC20F05B
:1010580063C04AF064C04BF04BBE37EF08F035EF81
:1010680008F03DEF08F00001FC814A6C4B1ED8B037
:101078004B2A0001E351D96EDA6ADECFF6FFDDCFE5
:10108800F7FF0800F5502E0AD8A44DEF08F04FEFEF
:1010980008F061EF08F0E351D96EDA6ADE2A000E33
:1010A800DD22E3C063F0E4C064F0E5C065F059EC0C
:1010B80020F063C0FAF064C0FBF00001E351D96E80
:1010C800DA6ADECFEEF0DDCFEFF0EEC0F6FFEFC06C
:1010D800F7FF0800F550750AD8A475EF08F077EF08
:1010E80008F0ABEF08F0E4C0D9FFE5C0DAFF020E64
:1010F800DF26DF5CD96EDA6ADECFE8F0DECFE9F012
:10110800010EEE25E66F000EEF21E76FE351D96E71
:10111800DA6AE6C0DEFFE7C0DDFF9FEF08F0E1C056
:101128007CF0E2C07DF0E8C07EF0E9C07FF096EC8C
:101138001CF010EF0AF0EEC0F6FFEFC0F7FF080052
:10114800F550750AD8B493EF08F0ABEF08F0ED6BE3
:10115800E351D96EDA6ADECFF6FFDDCFF7FF08007C
:10116800F550730AD8A4BBEF08F0BDEF08F0C7EF3D
:1011780008F0E351D96EDA6ADE2A000EDD22010E8C
:10118800ED6F13EF09F0E351D96EDA6ADECFF6FF9F
:10119800DDCFF7FF0800F5506C0AD8A4D6EF08F0A9
:1011A800D8EF08F013EF09F0E351D96EDA6ADECF11
:1011B800E6F0DDCFE7F0010EE627000EE723E6C0F4
:1011C800F6FFE7C0F7FF0800F5506C0AD8A4EFEF68
:1011D80008F0F1EF08F013EF09F0E351D96EDA6A7D
:1011E800DECFE6F0DDCFE7F0020EE627000EE723BC
:1011F800E6C0F6FFE7C0F7FF0800F550730AD8A469
:1012080008EF09F00AEF09F013EF09F0E351D96E7E
:10121800DA6A030EDE26000EDD22C3EF08F0ED5178
:10122800D8B419EF09F01BEF09F030EF09F0E1C06D
:101238006CF0E2C06DF0E4C0D9FFE5C0DAFF020E41
:10124800DF26DF5CD96EDA6ADECF6EF0DECF6FF0B4
:101258006AEC1AF010EF0AF0E351D96EDA6ADECFC1
:10126800EEF0DDCFEFF0EEC0F6FFEFC0F7FF0800BD
:10127800F5CFECF04BEF09F0EE4BEF2B5AEF09F0FE
:101288006C0EEC6F5AEF09F0EC6B5AEF09F0EC5169
:101298004C0AD8B440EF09F02A0AD8B444EF09F050
:1012A8000A0AD8B440EF09F048EF09F0EEC0F6FF9B
:1012B800EFC0F7FF0800F550660AD8A466EF09F0FA
:1012C80068EF09F0D1EF09F094EF09F0E4C0D9FF15
:1012D800E5C0DAFFDFCFE6F0040EDF26E651D96E6F
:1012E800DA6ADECFE8F0DECFE9F0DECFEAF0DECF73
:1012F800EBF09FEF09F0E4C0D9FFE5C0DAFFDFCFDC
:10130800E6F0040EDF26E651D96EDA6ADECFE8F0A1
:10131800DECFE9F0DECFEAF0DECFEBF09FEF09F0A9
:10132800EC514C0AD8B47FEF09F0200AD8B46AEF20
:1013380009F09FEF09F0010EEE25E66F000EEF2190
:10134800E76FE351D96EDA6AE6C0DEFFE7C0DDFF7A
:10135800C5EF09F0E1C0ACF0E2C0ADF0E8C0AEF016
:10136800E9C0AFF0EAC0B0F0EBC0B1F0EEC0F6FFF4
:10137800EFC0F7FF0800F5CFB2F04EEC00F010EF29
:101388000AF0EEC0F6FFEFC0F7FF0800F550660A56
:10139800D8B4AEEF09F0D1EF09F0E351D96EDA6AAB
:1013A800DECFF6FFDDCFF7FF0800F550250AD8A4F9
:1013B800E0EF09F0E2EF09F0F4EF09F0E351D96E3C
:1013C800DA6ADE2A000EDD22000E646F250E636FD6
:1013D800E1C065F0E2C066F031EC1FF010EF0AF0F2
:1013E8000001E351D96EDA6ADE2A000EDD2210EF21
:1013F8000AF0E351D96EDA6ADECFF6FFDDCFF7FFE8
:101408000800F550636F646BE1C065F0E2C066F0F8
:1014180031EC1FF0F4EF09F01200000E00018F6F9D
:10142800000E8E6F000E916F000E906F000E836F8E
:10143800000E826F0BC17AF0070E7A17D8A427EF37
:101448000AF029EF0AF040EF0BF00BC163F0646B70
:10145800000E666F080E656F97EC1FF001010A51C8
:1014680000017A6F7B6B63517A03F3CF7CF0F4CF82
:101478007DF07B03F3507D2764517A03F3507D2779
:1014880001010C5179C07EF000017F6B7E5F000E78
:101498007F5B7C517E03F3CF80F0F4CF81F07F0334
:1014A800F35081277D517E03F3508127040E802558
:1014B800886F000E8121896F000E8F6F000E8E6F6E
:1014C80029EF0BF0000E916F000E906F17EF0BF0E5
:1014D80001010A5100018E03F3CF7AF0F4CF7BF0BB
:1014E8008F03F3507B277A510101082500017C6F97
:1014F8007B510101092100017D6F88517C278951A9
:101508007D2390517C2791517D237CC0F6FF7DC0BF
:10151800F7FF0800F550826F836B926B92C07AF0E8
:10152800010E7B6F000E7C6F7A2B9EEF0AF0D8902D
:101538007B377C377A2F9BEF0AF0000182517B17AB
:1015480083517C177B517C11D8B4ADEF0AF0AFEF13
:101558000AF000EF0BF001010E51D8A4B6EF0AF023
:10156800B8EF0AF0DCEF0AF00001905175256B6FB7
:10157800915176216C6F92518EC07AF08FC07BF0BA
:10158800D8907A377B37D8907A377B37D8907A37A4
:101598007B377A27000E7B2377517A256D6F785138
:1015A8007B216E6F010E6F6FD5EC17F00BEF0BF010
:1015B8000001905175256B6F915176216C6F925196
:1015C8008EC07AF08FC07BF0D8907A377B37D8906E
:1015D8007A377B37D8907A377B377A27000E7B2388
:1015E80077517A256D6F78517B216E6F000E6F6F82
:1015F800D5EC17F00BEF0BF001010E51D8A407EF53
:101608000BF009EF0BF0B8EF0AF0DCEF0AF000017D
:10161800922B070E926513EF0BF015EF0BF092EF7C
:101628000AF0904B912B01010A5100017A6F7B6BF4
:101638007A51905D7B519159D8A025EF0BF027EF97
:101648000BF06CEF0AF08E4B8F2B0BC163F0646BC1
:10165800000E666F080E656F97EC1FF0000163516E
:101668008E5D64518F59D8A03CEF0BF03EEF0BF024
:1016780066EF0AF032EF0CF001010A510B03F3CFC9
:1016880063F0F4CF64F0000E0001666F080E656F1A
:1016980097EC1FF001010C5179C07AF000017B6BC7
:1016A8007A5F000E7B5B63517A03F3CF7CF0F4CF53
:1016B8007DF07B03F3507D2764517A03F3507D2737
:1016C800040E7C25886F000E7D21896F88510101E9
:1016D800082500017A6F89510101092100017B6FFA
:1016E8007AC0F6FF7BC0F7FF0800F550846F856B62
:1016F800000E876F070E866F000E8B6F000E8A6FC5
:101708001EEF0CF0000E8D6F000E8C6F08EF0CF0C2
:1017180086C07AF0010E7B6F000E7C6F7A2B98EFF3
:101728000BF0D8907B377C377A2F95EF0BF00001C0
:1017380084517B1785517C177B517C11D8B4A7EF56
:101748000BF0A9EF0BF0D8EF0BF001010E51D8A464
:10175800B0EF0BF0B2EF0BF0C5EF0BF000018A51C0
:1017680075256B6F8B5176216C6F8C5177256D6F5A
:101778008D5178216E6F010E6F6FD5EC17F0E3EF86
:101788000BF000018A5175256B6F8B5176216C6FB8
:101798008C5177256D6F8D5178216E6F000E6F6FAC
:1017A800D5EC17F0E3EF0BF001010E51D8A4DFEFF1
:1017B8000BF0E1EF0BF0B2EF0BF0C5EF0BF000010F
:1017C8008607D8A0870787BFEEEF0BF0ECEF0BF08A
:1017D80006EF0CF0000E876F070E866F884B892B7B
:1017E80088510101082500017A6F895101010921F9
:1017F80000017B6F7AC0F6FF7BC0F7FF0800F55049
:10180800846F856B8C4B8D2B01010B5100017A6F16
:101818007B6B7A518C5D8D51800A7C6F7B51800A7D
:101828007C59D8A01AEF0CF01CEF0CF08CEF0BF0E1
:101838008A4B8B2B01010A5100017A6F7B6B7A511D
:101848008A5D8B51800A7C6F7B51800A7C59D8A0B5
:1018580030EF0CF032EF0CF086EF0BF012000001C5
:101868006651800B6F6F66516625756F65AF3FEFE8
:101878000CF041EF0CF042EF0CF075817551D8B4C3
:1018880048EF0CF04AEF0CF05DEF0CF07529D8A486
:1018980050EF0CF052EF0CF05AEF0CF0000E636FA3
:1018A800000E646F000E656F000E666F658F65EF42
:1018B8000CF0000E636F000E646F000E656F000E73
:1018C800666F6A51800B6F1B6A516A25746F69AF26
:1018D80070EF0CF072EF0CF073EF0CF07481745130
:1018E800D8B479EF0CF07BEF0CF08EEF0CF0742984
:1018F800D8A481EF0CF083EF0CF08BEF0CF0000E06
:10190800676F000E686F000E696F000E6A6F698F4F
:1019180096EF0CF0000E676F000E686F000E696F8F
:10192800000E6A6F7451D8B49CEF0CF09EEF0CF067
:10193800A6EF0CF07551D8A4A4EF0CF0A6EF0CF0AC
:10194800B0EF0CF0000E636F000E646F000E656F51
:10195800000E666F46EF0EF069516303F3CF7AF01D
:10196800F4CF7BF07A51706F716B726B736B7B5134
:10197800766F776B786B796B68516403F3CF7AF085
:10198800F4CF7BF07A517027000E712372237323F2
:101998007B517627000E77237823792367516503D7
:1019A800F3CF7AF0F4CF7BF07A517027000E7123D1
:1019B800722373237B517627000E772378237923AC
:1019C80072C073F071C072F070C071F0706B6751C3
:1019D8006403F3CF7AF0F4CF7BF07A5170277B5110
:1019E8007123000E7223000E732368516303F3CF33
:1019F8007AF0F4CF7BF07A5170277B517123000E77
:101A08007223000E732372C073F071C072F070C03D
:101A180071F0706B67516303F3CF7AF0F4CF7BF00A
:101A28007A5170277B517123000E7223000E7323A5
:101A380069516403F3CF7AF0F4CF7BF07A517627BB
:101A48007B517723000E7823000E792368516503B4
:101A5800F3CF7AF0F4CF7BF07A5176277B51772356
:101A6800000E7823000E792369516503F3CF7AF0CD
:101A7800F4CF7BF07A516B6F7B516C6F6D6B6E6B33
:101A88006DC06EF06CC06DF06BC06CF06B6B6B5121
:101A980076276C5177236D5178236E51792370C066
:101AA8006BF071C06CF072C06DF073C06EF0190EFF
:101AB80063EF0DF0D8906E336D336C336B33E82ED3
:101AC8005EEF0DF06B5176276C5177236D517823BB
:101AD8006E51792372C073F071C072F070C071F0EA
:101AE800706B745175C06BF06C6B6B27000E6C23B8
:101AF800820E6B257A6FFF0E6C217B6F99EF0DF0CC
:101B0800D890763777377837793773AF8EEF0DF00F
:101B180090EF0DF091EF0DF07681D8907037713716
:101B2800723773377A07D8A07B0778AF9EEF0DF02E
:101B3800A0EF0DF084EF0DF0746B73AFA6EF0DF00E
:101B4800A8EF0DF0CCEF0DF0FF0E70156B6FFF0EC8
:101B580071156C6FFF0E72156D6F7F0E73156E6FBA
:101B68006B516C116D116E11D8B4BDEF0DF0BFEF54
:101B78000DF0C3EF0DF0010E746FCCEF0DF076A1F0
:101B8800C8EF0DF0CAEF0DF0CCEF0DF0BFEF0DF080
:101B98007451D8B4D2EF0DF0D4EF0DF0F8EF0DF08A
:101BA800010E7627000E77237823792379A1DFEFBA
:101BB8000DF0E1EF0DF0F8EF0DF076C06BF077C0A7
:101BC8006CF078C06DF079C06EF06E356E336D33A1
:101BD8006C336B336BC076F06CC077F06DC078F007
:101BE8006EC079F07A4B7B2B7BBF03EF0EF07B51F5
:101BF80008E17A29D8A003EF0EF005EF0EF00FEFF9
:101C08000EF0000E766F000E776F800E786F7F0EE5
:101C1800796F3CEF0EF07BBF1CEF0EF07B5106E1B5
:101C28007A05D8B01AEF0EF01CEF0EF027EF0EF081
:101C3800000E766F000E776F000E786F000E796FCA
:101C48006F6B3CEF0EF07AC075F0FF0E7617FF0E43
:101C580077177F0E7817000E791775A136EF0EF0FB
:101C680038EF0EF039EF0EF0788FD8907531796F24
:101C78006F51791376C063F077C064F078C065F06F
:101C880079C066F0120000000000000000000000AB
:101C9800000000000000000000000000000000003C
:101CA800000000000000000000000000000000002C
:101CB800000000000000000000000000000000001C
:101CC800000000000000000000000000000000000C
:101CD80000000000000000000000000000000000FC
:101CE80000000000000000000000000000000000EC
:101CF80000000000000000000000000000000000DC
:101D080000000000000000000000000000000000CB
:101D1800FCFCFC0C0C0C0C0C0C0000C0C0C080C0FF
:101D2800C0C0C0800080C0C0C0C08000000000FEED
:101D3800FEFE80C0C0C0C0C080000000008080C01F
:101D4800C0C0C0C080000000008080C0C0C0C0808B
:101D5800FEFEFE0000008080C0C0C0C080FEFEFE07
:101D68000000008080C0C0C0C0C0800000000080AB
:101D780080C0C0C0C080FEFEFE0000000000000061
:101D8800000000000000000000000000000000004B
:101D9800FFFFFF8383838383800000FFFFFF010031
:101DA8000001FFFFFF01000001FFFFFF000000FF2F
:101DB800FFFFC1808080C1FFFF3E00003EFFFFCDD6
:101DC8008C8C8C8FCFCF00003EFFFFC1808080C1FC
:101DD800FFFFFF00003EFFFFC1808080C1FFFFFFC3
:101DE80000003EFFFFCD8C8C8C8FCFCF00003EFFD4
:101DF800FFC1808080C1FFFFFF00000000000000DD
:101E080000000000000000000000000000000000CA
:101E180001010101010101010100000101010000AE
:101E280000000101010000000001010100000001A3
:101E38000101000101010100000000000000000193
:101E48000101010101000000000001010101010080
:101E5800010101000000000101010101000101016F
:101E68000000000000010101010101000000000064
:101E78000101010101000101010000000000000052
:101E8800000000000000000000000000000000FC4E
:101E9800FCFC000000000000008080C0C0C0C0C082
:101EA80080000000FEFEFE80C0C0C0C0C0800000F0
:101EB80000008080C0C0C0C0C08080000000C0C0DA
:101EC800C080C0C0C00000008080C0C0C0C0C0804A
:101ED8000000C0C0F8F8F8C0C0C000008080C0C0D2
:101EE800C0C0C08080000000C0C0C080C0C0C0406A
:101EF800C0C0800000000080C0C04000000000009A
:101F0800000000000000000000000000000000FFCA
:101F1800FFFF80808080800070F9FD9C8C8CCCFF56
:101F2800FFFF0000FFFFFFC1808080C1FFFF3E0070
:101F3800003EFFFFC1808080C1FFFF3E0000FFFF21
:101F4800FF03010101000070F9FD9C8C8CCCFFFFA0
:101F5800FF000000FFFFFF808080003EFFFFC18080
:101F68008080C1FFFF3E0000FFFFFF030101010069
:101F7800030F3FFEF8C0FCFF1F0300000000000035
:101F88000000000000000000000000000000000148
:101F9800010101010101010000000101010100012D
:101FA8000101000001010100010101010000000020
:101FB8000000000001010101010000000000010112
:101FC8000100000000000000000101010100010102
:101FD80001000000000101010101000000000101F1
:101FE80001010100000000000101010000000000E3
:101FF8000000181D1F0F0300000000000000000073
:1020080000000000000000000000000000000000C8
:1020180000000000000000000000000000000000B8
:1020280000000000000000000000000000000000A8
:102038000000000000000000000000000000000098
:102048000000000000000000000000000000000088
:102058000000000000000000000000000000000078
:102068000000000000000000000000000000000068
:102078000000000000000000000000000000000058
:1020880000000000000000018251800B8F6F825118
:102098008225966F81AF53EF10F055EF10F056EF91
:1020A80010F096819651D8B45CEF10F05EEF10F006
:1020B80072EF10F09629D8A464EF10F066EF10F0D4
:1020C8006EEF10F0000E7F6F000E806F000E816FB4
:1020D800000E826F818F826B7AEF10F0000E7F6F97
:1020E800000E806F000E816F000E826F8651800B8C
:1020F8008F1B86518625976F85AF85EF10F087EF88
:1021080010F088EF10F097819751D8B48EEF10F047
:1021180090EF10F0A4EF10F09729D8A496EF10F0E4
:1021280098EF10F0A0EF10F0000E836F000E846F90
:10213800000E856F000E866F858F866BACEF10F0F2
:10214800000E836F000E846F000E856F000E866F81
:102158008351841185118611D8A4B5EF10F0B7EF1B
:1021680010F0CFEF10F0000E7F6F000E806F000EA2
:10217800816F000E826F800E81137F0E82138F5144
:1021880082137FC07FF080C080F081C081F082C060
:1021980082F00FEF12F09651D8A4D5EF10F0D7EFD8
:1021A80010F0E1EF10F0000E7F6F000E806F000E50
:1021B800816F000E826F0FEF12F0975196C087F073
:1021C800886B875F000E885B7F0E8725906F000EF7
:1021D8008821916F7FC08BF080C08CF081C08DF01A
:1021E80082C08EF0000E7F6F000E806F000E816F30
:1021F800000E826F000E926F000E936F000E946FA8
:10220800000E956F976B41EF11F09751D8B40FEF0F
:1022180011F011EF11F028EF11F0D8908B378C37AF
:102228008D378E37D8907F3780378137823795AF93
:1022380020EF11F022EF11F023EF11F07F81D890F9
:10224800923793379437953783518B5D84518C59E6
:1022580085518D5986518E59D8A035EF11F037EF39
:1022680011F040EF11F0958D83518B5F84518C5B99
:1022780085518D5B86518E5B972B190E976547EFBD
:1022880011F049EF11F009EF11F08B518C118D11FC
:102298008E11D8B452EF11F054EF11F06CEF11F029
:1022A80092816CEF11F0D8907F3780378137823771
:1022B80095AF61EF11F063EF11F064EF11F07F81DA
:1022C800D89092379337943795379007D8A09107CD
:1022D80081AF71EF11F073EF11F057EF11F0976BB9
:1022E80095AF79EF11F07BEF11F09FEF11F0FF0E32
:1022F8009215876FFF0E9315886FFF0E9415896FDF
:102308007F0E95158A6F8751881189118A11D8B463
:1023180090EF11F092EF11F096EF11F0010E976F18
:102328009FEF11F07FA19BEF11F09DEF11F09FEF50
:1023380011F092EF11F09751D8B4A5EF11F0A7EF73
:1023480011F0CBEF11F0010E7F27000E80238123BF
:10235800822382A1B2EF11F0B4EF11F0CBEF11F0AC
:102368007FC087F080C088F081C089F082C08AF081
:102378008A358A3389338833873387C07FF088C0AA
:1023880080F089C081F08AC082F0904B912B91BF78
:10239800D6EF11F0915108E19029D8A0D6EF11F0AD
:1023A800D8EF11F0E3EF11F0000E916F9069000E75
:1023B8007F6F000E806F000E816F000E826F91BFDD
:1023C800F0EF11F0915106E19005D8B0EEEF11F061
:1023D800F0EF11F0FDEF11F0000E916F000E906F0D
:1023E800000E7F6F000E806F000E816F000E826FEF
:1023F8008F6B90C096F096A104EF12F006EF12F0E2
:1024080009EF12F0818F0AEF12F0819FD890963170
:10241800826FC3EF10F012002050800B2D6E2050F9
:102428002024346E1FAE1BEF12F01DEF12F01EEFCA
:1024380012F034803450D8B424EF12F026EF12F0A2
:102448003AEF12F03428D8A42CEF12F02EEF12F045
:1024580036EF12F0000E1D6E000E1E6E000E1F6E7F
:10246800000E206E1F8E206A42EF12F0000E1D6EC5
:10247800000E1E6E000E1F6E000E206E2450800B84
:102488002D1A24502424356E23AE4DEF12F04FEF51
:1024980012F050EF12F035803550D8B456EF12F0E4
:1024A80058EF12F06CEF12F03528D8A45EEF12F056
:1024B80060EF12F068EF12F0000E216E000E226E2F
:1024C800000E236E000E246E238E246A74EF12F021
:1024D800000E216E000E226E000E236E000E246E7A
:1024E8002150221023102410D8A47DEF12F07FEF82
:1024F80012F097EF12F0000E1D6E000E1E6E000E09
:102508001F6E000E206E800E1F127F0E20122D509F
:1025180020121DC01DF01EC01EF01FC01FF020C0DD
:1025280020F0D7EF13F03450D8A49DEF12F09FEFAE
:1025380012F0A9EF12F0000E1D6E000E1E6E000EB6
:102548001F6E000E206ED7EF13F0355034C025F003
:10255800266A255E000E265A7F0E25242E6E000E52
:1025680026202F6E1DC029F01EC02AF01FC02BF098
:1025780020C02CF0000E1D6E000E1E6E000E1F6E89
:10258800000E206E000E306E000E316E000E326EA0
:10259800000E336E356A09EF13F03550D8B4D7EF13
:1025A80012F0D9EF12F0F0EF12F0D89029362A364F
:1025B8002B362C36D8901D361E361F36203633AEB5
:1025C800E8EF12F0EAEF12F0EBEF12F01D80D8906E
:1025D80030363136323633362150295C22502A586B
:1025E80023502B5824502C58D8A0FDEF12F0FFEFA1
:1025F80012F008EF13F0338C2150295E22502A5A2A
:1026080023502B5A24502C5A352A190E35640FEFB3
:1026180013F011EF13F0D1EF12F029502A102B10FC
:102628002C10D8B41AEF13F01CEF13F034EF13F09A
:10263800308034EF13F0D8901D361E361F36203602
:1026480033AE29EF13F02BEF13F02CEF13F01D80AE
:10265800D89030363136323633362E06D8A02F068B
:102668001FAE39EF13F03BEF13F01FEF13F0356A8D
:1026780033AE41EF13F043EF13F067EF13F0FF0EA3
:102688003014256EFF0E3114266EFF0E3214276E9D
:102698007F0E3314286E2550261027102810D8B422
:1026A80058EF13F05AEF13F05EEF13F0010E356E8A
:1026B80067EF13F01DA063EF13F065EF13F067EFFA
:1026C80013F05AEF13F03550D8B46DEF13F06FEFE5
:1026D80013F093EF13F0010E1D26000E1E221F2289
:1026E800202220A07AEF13F07CEF13F093EF13F081
:1026F8001DC025F01EC026F01FC027F020C028F0FE
:102708002834283227322632253225C01DF026C02B
:102718001EF027C01FF028C020F02E4A2F2A2FBEF7
:102728009EEF13F02F5008E12E28D8A09EEF13F04B
:10273800A0EF13F0ABEF13F0000E2F6E2E68000E13
:102748001D6E000E1E6E000E1F6E000E206E2FBE38
:10275800B8EF13F02F5006E12E04D8B0B6EF13F0FF
:10276800B8EF13F0C5EF13F0000E2F6E000E2E6EAB
:10277800000E1D6E000E1E6E000E1F6E000E206EE7
:102788002D6A2EC034F034A0CCEF13F0CEEF13F046
:10279800D1EF13F01F8ED2EF13F01F9ED890343074
:1027A800206E8BEF12F012009396F80ECD6ECD804E
:1027B8009D809E90F28C0B0ECF6EDC0ECE6ED08E6E
:1027C800F1949F80F28EF28C3FEC27F0000E47ECDC
:1027D80025F0F9EC1FF0590E0001636F7D0E646F50
:1027E800E4EC22F0000E0001946F050E936F000ECA
:1027F800966F070E956F9E0E976F7F0E986FB3ECCE
:102808001EF0A5EC21F0020E0001666F190E676F2D
:10281800020E686F0D0E696F1E0E6A6F000E6B6FE9
:102828000A0E70EC22F05C0E0001F96F510EF86F81
:10283800600EE82EFED7F82FFCD7F92FFAD7000044
:1028480022EC27F0F4EC26F05E0E0001666F5D0EB8
:10285800676F5C0E686F5B0E696FE1EC23F05A0ED0
:102868000001666F590E676F580E686F69EC25F0A6
:10287800670E0101C86F010EC96FAF0ECA6F7F0ED8
:10288800CB6F5EC0CCF1CD6B5DC0CEF1CF6B5CC0C1
:10289800D0F1D16B0DEC24F0590E0001636F7D0E61
:1028A800646FE4EC22F0000E0001946F010E936F48
:1028B800000E966F010E956F670E976F010E986F59
:1028C800B3EC1EF0A5EC21F0670E0101C86F010EF4
:1028D800C96FC00ECA6F7F0ECB6F5AC0CCF1CD6BDB
:1028E80059C0CEF1CF6B58C0D0F1D16B0DEC24F0AC
:1028F800590E0001636F7D0E646FE4EC22F0000E48
:102908000001946F410E936F000E966F010E956F44
:10291800670E976F010E986FB3EC1EF0000E000162
:10292800766F010E756F000E786F0C0E776F000EC4
:102938007A6F7F0E796F000E7C6F0C0E7B6F010E25
:102948007D6F67EC15F0A5EC21F0000E5CEC26F02D
:10295800540E0001986F500E996F3EEC1BF098C012
:102968004CF099C04DF04C044D10D8A4BEEF14F0B3
:10297800C0EF14F054EF15F0670E0101C86F010E97
:10298800C96FD10ECA6F7F0ECB6F50C0CCF151C04A
:10299800CDF152C0CEF153C0CFF10DEC24F0590E59
:1029A8000001636F7D0E646FE4EC22F0000E0001FD
:1029B800946F050E936F000E966F1A0E956F670E43
:1029C800976F010E986FB3EC1EF0A5EC21F0670E1F
:1029D8000101C86F010EC96FDF0ECA6F7F0ECB6F82
:1029E80054C0CCF155C0CDF156C0CEF157C0CFF18F
:1029F8000DEC24F0590E0001636F7D0E646FE4EC5A
:102A080022F0000E0001946F050E936F000E966F72
:102A18002F0E956F670E976F010E986FB3EC1EF02F
:102A2800A5EC21F0000E00017C6F000E7D6F080EF2
:102A38007E6F420E7F6F54C080F055C081F056C043
:102A480082F057C083F0B0EC1DF00001D8B02FEF32
:102A580015F031EF15F035EF15F0E4EC26F004EC45
:102A680027F054C07CF055C07DF056C07EF057C0AA
:102A78007FF0000E0001806F000E816F000E826FE4
:102A8800420E836FB0EC1DF00001D8B04EEF15F088
:102A980050EF15F054EF15F013EC27F022EC27F067
:102AA8006C0E5CEC26F04A0E0001F96F0E0EF86F02
:102AB800190EE82EFED7F82FFCD7F92FFAD728EFF2
:102AC80014F04CEF00F000017551795D636F765199
:102AD8007A59646FE2EC25F063C094F064C095F015
:102AE800000177517B5D636F78517C59646FE2EC2C
:102AF80025F063C096F064C097F075C086F076C084
:102B080087F077C088F078C089F000017551795D49
:102B18007A51800A7E6F7651800A7E59D8B097EF35
:102B280015F099EF15F09DEF15F090699169A1EFF7
:102B380015F0000E916F010E906F77517B5D7C51FF
:102B4800800A7E6F7851800A7E59D8B0AEEF15F0B2
:102B5800B0EF15F0B4EF15F092699369B8EF15F07E
:102B6800000E936F010E926F9651945D9551800AF5
:102B78007E6F9751800A7E59D8A0C5EF15F0C7EF30
:102B880015F049EF16F096C07EF097C07FF0D89008
:102B98007E377F3794517E5F95517F5B7EC08CF086
:102BA8007FC08DF0000E8DBFFF0E8E6F8F6F000EF1
:102BB8008B6F000E8A6F38EF16F086C06BF087C0F7
:102BC8006CF088C06DF089C06EF07DC06FF0D5ECF8
:102BD80017F000018FBFF5EF15F0F3EF15F00DEFCB
:102BE80016F0D89096357E6F97357F6F806B7FBFD4
:102BF80080078051816F7E518C277F518D238051B2
:102C08008E2381518F23905186279151872336EF48
:102C180016F094C07EF095C07FF0D8907E377F374D
:102C280096C080F097C081F0D890803781377E5168
:102C3800805D826F7F518159836F846B83BF840766
:102C48008451856F82518C2783518D2384518E2323
:102C580085518F2390518627915187239251882738
:102C6800935189238A4B8B2B8A51945D9551800A05
:102C78007E6F8B51800A7E59D8B045EF16F047EF2A
:102C880016F0E1EF15F0C9EF16F094C07EF095C08C
:102C98007FF0D8907E377F3796517E5F97517F5B64
:102CA8007EC08CF07FC08DF0000E8DBFFF0E8E6F42
:102CB8008F6F000E8B6F000E8A6FBAEF16F086C00A
:102CC8006BF087C06CF088C06DF089C06EF07DC075
:102CD8006FF0D5EC17F000018FBF77EF16F075EFA6
:102CE80016F08FEF16F0D89094357E6F95357F6F7C
:102CF800806B7FBF80078051816F7E518C277F5109
:102D08008D2380518E2381518F239251882793518F
:102D18008923B8EF16F096C07EF097C07FF0D89060
:102D28007E377F3794C080F095C081F0D890803787
:102D380081377E51805D826F7F518159836F846BAB
:102D480083BF84078451856F82518C2783518D23DB
:102D580084518E2385518F23905186279151872343
:102D680092518827935189238A4B8B2B8A51965DE0
:102D78009751800A7E6F8B51800A7E59D8B0C7EF71
:102D880016F0C9EF16F063EF16F012000FC1A8F0A5
:102D980010C1A9F011C1AAF012C1ABF098C0A8F0F7
:102DA80099C0A9F09AC0AAF09BC0ABF0810E0001AF
:102DB8009C6FFF0E9D6FA8C09EF0A9C09FF0AAC08F
:102DC800A0F0ABC0A1F0180EEFEF16F0D890A13329
:102DD800A0339F339E33E82EEAEF16F09E519C25D0
:102DE800A66F000E9D21A76FA7BF04EF17F0A7518C
:102DF80009E1170EA65DD8A004EF17F006EF17F04B
:102E080010EF17F098C098F099C099F09AC09AF00E
:102E18009BC09BF0D4EF17F0A7BF15EF17F017EF83
:102E280017F088EF17F0A6C09CF0FF0E9D6FFF0EFD
:102E38009E6F7F0E9F6F000EA06F9C6726EF17F0A6
:102E48002EEF17F0A035A0339F339E339D339C2F70
:102E580021EF17F09DC0A2F09EC0A3F09FC0A4F080
:102E6800A0C0A5F00001A251A8159C6FA351A915F7
:102E78009D6FA451AA159E6FA551AB159F6F9C51CC
:102E88009D119E119F11D8A44CEF17F04EEF17F02B
:102E980050EF17F006EF17F0A8C09CF0A9C09DF0FE
:102EA800AAC09EF0ABC09FF0200E60EF17F0D8903C
:102EB8009F339E339D339C33E82E5BEF17F09C5174
:102EC8009D119E119F11D8B46CEF17F06EEF17F09B
:102ED80076EF17F0A251A827A351A923A451AA233A
:102EE800A551AB23A21D9C6FA31D9D6FA41D9E6FB2
:102EF800A51D9F6F9C51A8179D51A9179E51AA17F0
:102F08009F51AB17CCEF17F0A8C09CF0A9C09DF05B
:102F1800AAC09EF0ABC09FF0200E98EF17F0D89093
:102F28009F339E339D339C33E82E93EF17F09C51CB
:102F38009D119E119F11D8A4A4EF17F0A6EF17F0CA
:102F4800B0EF17F0000EA86F000EA96F000EAA6F61
:102F5800000EAB6FCCEF17F0D890A8359C6FA93551
:102F68009D6FAA359E6FAB359F6F9C519D119E1129
:102F78009F11D8B4C2EF17F0C4EF17F0CCEF17F0D9
:102F8800000EA86F000EA96F800EAA6FBF0EAB6F60
:102F9800A8C098F0A9C099F0AAC09AF0ABC09BF05D
:102FA800120000016CBFDBEF17F0DDEF17F0B3EF95
:102FB80018F080EC27F00001706F716B70516B5D39
:102FC8006C51800A726F7151800A7259D8B0EFEF54
:102FD80017F0F1EF17F0B3EF18F06EBFF6EF17F038
:102FE800F8EF17F0B3EF18F082EC27F00001706FDC
:102FF800716B70516D5D6E51800A726F7151800AEC
:103008007259D8A00AEF18F00CEF18F0A4EF18F0D6
:10301800B3EF18F06DC070F0070E7017010E716FE6
:10302800702B19EF18F0D8907137702F17EF18F030
:103038006DC063F06EC064F0000E0001666F080E8C
:10304800656F97EC1FF0070ED8900001633764375F
:10305800E82E28EF18F0DF0E6325726F010E642149
:10306800736F6B517225D96E6C517321DA6E715181
:10307800DF12B3EF18F06DC070F0070E7017010E75
:10308800716F702B4AEF18F0D8907137702F48EF96
:1030980018F000017151FF0A726F6DC063F06EC0C5
:1030A80064F0000E666F080E656F97EC1FF0070E50
:1030B800D890000163376437E82E5CEF18F0DF0E14
:1030C8006325736F010E6421746F6B517325D96E7C
:1030D8006C517421DA6E7251DF16B3EF18F06DC0BF
:1030E80070F0070E7017010E716F702B7EEF18F0DD
:1030F800D8907137702F7CEF18F06DC063F06EC0F8
:1031080064F0000E0001666F080E656F97EC1FF003
:10311800070ED890000163376437E82E8DEF18F05A
:10312800DF0E6325726F010E6421736F6B51722578
:10313800D96E6C517321DA6E7151DF1AB3EF18F042
:103148006F51000AD8B43FEF18F0010AD8B40EEF57
:1031580018F0030AD8B473EF18F0B3EF18F01200A0
:103168000001796F00017951D8B4BDEF18F0BFEFB5
:1031780018F0E1EF18F074BFC6EF18F0C4EF18F0BC
:10318800E1EF18F071C075F072C076F073C077F097
:1031980074C078F0751F761F771F781F752B000E87
:1031A80076237723782375C07BF076C07CF077C0D0
:1031B8007DF078C07EF0E9EF18F071C07BF072C046
:1031C8007CF073C07DF074C07EF071517211731180
:1031D8007411D8A4F2EF18F0F4EF18F0FEEF18F01D
:1031E800000E716F000E726F000E736F000E746F19
:1031F8008FEF19F0960E7A6F08EF19F07A2BD890A6
:103208007E337D337C337B33000E7B15756F000E68
:103218007C15766F000E7D15776FFE0E7E15786F24
:103228007551761177117811D8A41DEF19F01FEF99
:1032380019F002EF19F02DEF19F07A2B010E7B2708
:10324800000E7C237D237E23D8907E337D337C3310
:103258007B33000E7B15756F000E7C15766F000EA4
:103268007D15776FFF0E7E15786F75517611771182
:103278007811D8A442EF19F044EF19F021EF19F0B2
:103288004CEF19F07A07D8907B377C377D377E373B
:103298007DBF51EF19F053EF19F05BEF19F0020EF3
:1032A8007A6159EF19F05BEF19F046EF19F07AB12E
:1032B80060EF19F062EF19F063EF19F07D9FD89075
:1032C8007A337AC075F0766B776B786B75C078F067
:1032D800776B766B756B75517B1376517C137751D1
:1032E8007D1378517E137951D8B47DEF19F07FEFB3
:1032F80019F087EF19F074BF86EF19F084EF19F011
:1033080087EF19F07E8F7BC071F07CC072F07DC0B2
:1033180073F07EC074F01200176E1750D8B497EF90
:1033280019F099EF19F0BBEF19F012BEA0EF19F0E0
:103338009EEF19F0BBEF19F00FC013F010C014F096
:1033480011C015F012C016F0131E141E151E161EFD
:10335800132A000E14221522162213C019F014C0C5
:103368001AF015C01BF016C01CF0C3EF19F00FC0FF
:1033780019F010C01AF011C01BF012C01CF00F5049
:10338800101011101210D8A4CCEF19F0CEEF19F0CC
:10339800D8EF19F0000E0F6E000E106E000E116EB1
:1033A800000E126E69EF1AF0960E186EE2EF19F021
:1033B800182AD8901C321B321A321932000E1914EE
:1033C800136E000E1A14146E000E1B14156EFE0EEA
:1033D8001C14166E1350141015101610D8A4F7EFFD
:1033E80019F0F9EF19F0DCEF19F007EF1AF0182AC5
:1033F800010E1926000E1A221B221C22D8901C32FC
:103408001B321A321932000E1914136E000E1A14D8
:10341800146E000E1B14156EFF0E1C14166E13503E
:10342800141015101610D8A41CEF1AF01EEF1AF07D
:10343800FBEF19F026EF1AF01806D89019361A364D
:103448001B361C361BBE2BEF1AF02DEF1AF035EF8A
:103458001AF0020E186033EF1AF035EF1AF020EF69
:103468001AF018B03AEF1AF03CEF1AF03DEF1AF0E4
:103478001B9ED890183218C013F0146A156A166A81
:1034880013C016F0156A146A136A135019121450EF
:103498001A1215501B1216501C121750D8B457EF99
:1034A8001AF059EF1AF061EF1AF012BE60EF1AF035
:1034B8005EEF1AF061EF1AF01C8E19C00FF01AC0F7
:1034C80010F01BC011F01CC012F012006EC076F094
:1034D8006FC077F0000176517711D8A476EF1AF013
:1034E80078EF1AF07CEF1AF0EC0E766F7F0E776F9C
:1034F800000E796F000E786F85EF1AF00001784B97
:10350800792B78517625706F79517721716F70C05A
:10351800F6FF71C0F7FFF86A070EF76403D00800DA
:10352800F55005D0F6CFE1FFF7CFE2FFE7500009ED
:10353800D8A4A1EF1AF0A3EF1AF082EF1AF0000155
:10354800FBBFA9EF1AF0ABEF1AF0BEEF1AF07851F3
:10355800FA5DFB51800A706F7951800A7059D8B0B2
:10356800B8EF1AF0BAEF1AF0BEEF1AF0FAC078F016
:10357800FBC079F078C072F079C073F04AC074F07B
:103588004BC075F0FCB1CBEF1AF0CDEF1AF00BEF92
:103598001BF0DCEF1AF0000E646F200E636F6CC036
:1035A80065F06DC066F031EC1FF00001784B792BA7
:1035B8007451785D7951800A706F7551800A70591D
:1035C800D8A0E9EF1AF0EBEF1AF0CFEF1AF00BEFF3
:1035D8001BF076C0F6FF77C0F7FFF86A070EF764AE
:1035E80003D00800F55005D0F6CFE1FFF7CFE2FF92
:1035F800E7500001706F7051636F646B6CC065F0C9
:103608006DC066F031EC1FF00001764B772B720726
:10361800D8A07307722906E17329D8A416EF1BF006
:1036280018EF1BF0EDEF1AF0FCA11DEF1BF01FEFD8
:103638001BF03DEF1BF02EEF1BF0000E646F200E09
:10364800636F6CC065F06DC066F031EC1FF000016F
:10365800784B792B7451785D7951800A706F755168
:10366800800A7059D8A03BEF1BF03DEF1BF021EF0B
:103678001BF0120071EC26F030EC26F059EC21F02A
:1036880063C09EF064C09FF059EC21F063C0A0F0C5
:1036980064C0A1F059EC21F063C0A2F064C0A3F0AB
:1036A80059EC21F063C0A4F064C0A5F059EC21F0F6
:1036B80063C0A6F064C0A7F0A0C06BF0A1C06CF016
:1036C8009EC069F09FC06AF01AEC23F0000169C03F
:1036D80071F06AC072F0736B746B000EB4EC18F082
:1036E80071C07FF072C080F073C081F074C082F046
:1036F800000E0001836F000E846F200E856F410E4F
:10370800866F47EC10F000019951D96EDA6A7FC0D4
:10371800DEFF80C0DEFF81C0DEFF82C0DEFFA4C006
:103728006BF0A5C06CF0A2C069F0A3C06AF01AECF7
:1037380023F0000169C071F06AC072F0736B746B9A
:10374800000EB4EC18F071C07FF072C080F073C046
:1037580081F074C082F0000E0001836F000E846F48
:10376800200E856F410E866F47EC10F000019851CE
:10377800D96EDA6A7FC0DEFF80C0DEFF81C0DEFF5F
:1037880082C0DEFFA251A0259A6FA351A1219B6F91
:10379800A4519A27A5519B239E519A259C6F9F510E
:1037A8009B219D6F9C51A61907E19D51A719D8A48B
:1037B800E0EF1BF0E2EF1BF0E8EF1BF0000E996F53
:1037C800010E986FECEF1BF0000E996F000E986FCA
:1037D800120099EC26F046EC26F0EDEC21F001C041
:1037E8003CF002C03DF0EDEC21F001C03EF002C01B
:1037F8003FF0EDEC21F001C040F002C041F0EDECEB
:1038080021F001C042F002C043F0EDEC21F001C00C
:1038180044F002C045F03EC009F03FC00AF03CC089
:1038280007F03DC008F082EC23F007C00FF008C095
:1038380010F0116A126A000E90EC19F00FC01DF01A
:1038480010C01EF011C01FF012C020F0000E216E33
:10385800000E226E200E236E410E246E10EC12F024
:103868003750D96EDA6A1DC0DEFF1EC0DEFF1FC0EA
:10387800DEFF20C0DEFF42C009F043C00AF040C0AE
:1038880007F041C008F082EC23F007C00FF008C031
:1038980010F0116A126A000E90EC19F00FC01DF0BA
:1038A80010C01EF011C01FF012C020F0000E216ED3
:1038B800000E226E200E236E410E246E10EC12F0C4
:1038C8003650D96EDA6A1DC0DEFF1EC0DEFF1FC08B
:1038D800DEFF20C0DEFF40503E24386E41503F20BE
:1038E800396E42503826435039223C5038243A6EBB
:1038F8003D5039203B6E3A50441807E13B5045187B
:10390800D8A489EF1CF08BEF1CF091EF1CF0000E8F
:10391800376E010E366E95EF1CF0000E376E000EF6
:10392800366E12000001FBBF9CEF1CF09EEF1CF0EE
:103938009FEF1CF0FC93FBBFA6EF1CF0A4EF1CF05C
:10394800ACEF1CF0000E816F010E806FB0EF1CF021
:10395800FAC080F0FBC081F04AC082F04BC083F00F
:10396800000E856F4F0E846F0101666BE7EF1CF048
:103978008407D8A08507170E8425D96E010E8521E6
:10398800DA6E7EC063F07FC064F0000E666F0A0EC8
:10399800656F4FEC23F000016351300FDF6E800735
:1039A800D8A081078207D8A083077EC063F07FC0B4
:1039B80064F0000E666F0A0E656F35EC22F063C086
:1039C8007EF064C07FF0000184518511D8B4EFEF18
:1039D8001CF0F1EF1CF01BEF1DF07E517F11D8A4F5
:1039E800F8EF1CF0FAEF1CF0BCEF1CF081BF07EFFA
:1039F8001DF0815106E18005D8B005EF1DF007EFF5
:103A08001DF0BCEF1CF083BF12EF1DF0835108E1DD
:103A18008205D8A012EF1DF014EF1DF01BEF1DF06A
:103A2800FCB319EF1DF01BEF1DF0BCEF1CF07CC0C0
:103A380073F07DC074F0170E8425756F010E852113
:103A4800766F82C077F083C078F007EC21F012001F
:103A58000001653566356C6F6C51D8A436EF1DF0E2
:103A680038EF1DF042EF1DF0000E636F000E646F1B
:103A7800000E656F000E666FAFEF1DF063C067F054
:103A880064C068F065C069F066C06AF0200E52EF45
:103A98001DF0D8906A33693368336733E82E4DEFE9
:103AA8001DF067516B6F658FFF0E6317FF0E64176C
:103AB800FF0E6517000E6617960E6C5F6CBF69EFF8
:103AC8001DF067EF1DF07FEF1DF06C51800A970F16
:103AD800D8B071EF1DF073EF1DF075EF1DF038EFE2
:103AE8001DF0D89066336533643363336C3F75EFEC
:103AF8001DF097EF1DF01F0E6C6585EF1DF087EF29
:103B08001DF08FEF1DF038EF1DF0D8906337643744
:103B1800653766376C076C51D8A495EF1DF097EFA1
:103B28001DF089EF1DF06B51D8B49DEF1DF09FEF8C
:103B38001DF0A7EF1DF0661F651F641F636D000E63
:103B480064236523662363C063F064C064F065C0C2
:103B580065F066C066F01200000E00017C15846FE7
:103B6800000E7D15856F800E7E15866F7F0E7F1582
:103B7800876F8451851186118711D8A4C6EF1DF06F
:103B8800C8EF1DF0D0EF1DF0000E7C6F000E7D6FAA
:103B9800000E7E6F000E7F6F000E8015846F000E82
:103BA8008115856F800E8215866F7F0E8315876F4E
:103BB8008451851186118711D8A4E5EF1DF0E7EF30
:103BC8001DF0EFEF1DF0000E806F000E816F000EEC
:103BD800826F000E836F7FAFF4EF1DF0F6EF1DF0DC
:103BE800FFEF1DF07C6D7D1FD8B07D2B7E1FD8B0F8
:103BF8007E2B800E7F5783AF04EF1EF006EF1EF07A
:103C08000FEF1EF0806D811FD8B0812B821FD8B0B6
:103C1800822B800E8357000E7C1B000E7D1B000E2E
:103C28007E1B800E7F1B000E801B000E811B000E6A
:103C3800821B800E831B80517C5D81517D5982518E
:103C48007E5983517F59D8B02CEF1EF02EEF1EF00D
:103C580031EF1EF0D89032EF1EF0D880120013C159
:103C68006DF014C16EF015C16FF016C170F063C02D
:103C78006DF064C06EF065C06FF066C070F06DC026
:103C880067F06EC068F06FC069F070C06AF0180E17
:103C980054EF1EF00001D8906A33693368336733F4
:103CA800E82E4EEF1EF067516B6F6C6B6B516C1109
:103CB800D8A461EF1EF063EF1EF083EF1EF0D890DA
:103CC8006D35676F6E35686F6F35696F70356A6F00
:103CD8006751681169116A11D8A475EF1EF077EF62
:103CE8001EF07DEF1EF0000E646F020E636FB2EFE0
:103CF8001EF0000E646F030E636FB2EF1EF06B29A7
:103D08006C11D8A48AEF1EF08CEF1EF0AEEF1EF0F7
:103D18006DC067F06EC068F06FC069F070C06AF07F
:103D2800090ED8906737683769376A37E82E95EFF4
:103D38001EF06751681169116A11D8B4A6EF1EF018
:103D4800A9EF1EF0010EAAEF1EF0000E636F646B60
:103D5800B2EF1EF0000E646F040E636F120097C07E
:103D680063F098C064F05FEC24F0000163519C6F2D
:103D7800FE0E93199411D8A4C4EF1EF0C6EF1EF0DE
:103D8800D6EF1EF09C5101010A03F3CF99F0F4CF4E
:103D98009AF0000199518008936F9A51D8A0E82AA7
:103DA8000008946F93299411D8A4DDEF1EF0DFEF7B
:103DB8001EF0F9EF1EF09C5101010A03F3CF99F0B0
:103DC800F4CF9AF0000199518008636F9A51D8A0F6
:103DD800E82A0008646F000E666F020E656F97ECA4
:103DE8001FF063C093F064C094F000019B6B27EF51
:103DF8001FF09B5101010A03F3CF99F0F4CF9AF019
:103E0800000193519925756F94519A21766F95C049
:103E180077F096C078F097C0F6FF98C0F7FFF86A79
:103E2800070EF76403D00800F55005D0F6CFE1FF80
:103E3800F7CFE2FFE7500001796F11EC0AF00001BB
:103E4800974B982B9B2B9C519B5DD8A02EEF1FF076
:103E580030EF1FF0FDEF1EF01200000165516611F2
:103E6800D8B439EF1FF03BEF1FF044EF1FF0655156
:103E78006611D8A442EF1FF044EF1FF049EF1FF07E
:103E8800635184EC27F096EF1FF020EE09F065519E
:103E9800D9266651DA22DE50DE10D8B456EF1FF06C
:103EA80058EF1FF073EF1FF020EE09F06551D92687
:103EB8006651DA2210EE02F06551E1266651E222DF
:103EC800DE50E65CE650800A6B6FDE50800A6B5964
:103ED800D8B071EF1FF073EF1FF096EF1FF020EED0
:103EE80002F06551D9266651DA22DECF67F0DDCFC0
:103EF80068F065C0D9FF66C0DAFFDECF69F0DDCFB4
:103F08006AF067516925D96E68516A21DA6E63C013
:103F1800DFFF20EE02F06551D9266651DA22DE2A4B
:103F2800000EDD2212000001686B66BFA0EF1FF0D3
:103F38009EEF1FF0A6EF1FF0656D661FD8B0662BC9
:103F4800010E686F64BFADEF1FF0ABEF1FF0B3EF6A
:103F58001FF0636D641FD8B0642B010E681B000E40
:103F68006A6F000E696F65516611D8B4BEEF1FF015
:103F7800C0EF1FF0E8EF1FF0010E676FC8EF1FF0EA
:103F8800D89065376637672B66AFCDEF1FF0CFEF58
:103F98001FF0C4EF1FF0D89069376A376551635D29
:103FA80066516459D8A0DBEF1FF0DDEF1FF0E2EF98
:103FB8001FF06551635F6651645B6981D890663311
:103FC8006533672FCFEF1FF06851D8B4EEEF1FF0BD
:103FD800F0EF1FF0F4EF1FF0696D6A1FD8B06A2B7D
:103FE80069C063F06AC064F01200070E00016C6FCC
:103FF800170E6B6F6A0EE82EFED76B2FFCD76C2F4F
:10400800FAD70000AE0ED3EC26F0D50ED3EC26F08E
:10401800800ED3EC26F0A80ED3EC26F03F0ED3EC9E
:1040280026F0D30ED3EC26F0000ED3EC26F0400E8B
:10403800D3EC26F08D0ED3EC26F0140ED3EC26F03C
:10404800200ED3EC26F0000ED3EC26F0A10ED3EC14
:1040580026F0C80ED3EC26F0DA0ED3EC26F0120EBA
:10406800D3EC26F0810ED3EC26F0CF0ED3EC26F05D
:10407800D90ED3EC26F0F10ED3EC26F0DB0ED3EC00
:1040880026F0400ED3EC26F0A40ED3EC26F0A60EB4
:10409800D3EC26F02E0ED3EC26F0AF0ED3EC26F0A0
:1040A800F4EC26F0A5EC21F01200000E00016A6F76
:1040B800000E696F6351D96EDA6ADECFF6FFDDCF85
:1040C800F7FF0800F5502A0AD8A46DEF20F06FEF2B
:1040D80020F099EF20F06351D96EDA6ADE2A000EDB
:1040E800DD2264C0D9FF65C0DAFF020EDF26DF5C7F
:1040F800D96EDA6ADECF69F0DECF6AF0ACEF20F075
:104108000A0E6903F3CF66F0F4CF67F06A03F35041
:10411800672768516625696F000E67216A6F6351CA
:10412800D96EDA6ADE2A000EDD226351D96EDA6AA8
:10413800DECFF6FFDDCFF7FF0800F550D00F686F30
:10414800090E6865AAEF20F0ACEF20F084EF20F0AC
:1041580069C063F06AC064F01200000E00016315C4
:104168006B6F000E64156C6F800E65156D6F7F0E9A
:1041780066156E6F6B516C116D116E11D8A4C7EF77
:1041880020F0C9EF20F0D1EF20F0000E636F000E91
:10419800646F000E656F000E666F000E67156B6F1B
:1041A800000E68156C6F800E69156D6F7F0E6A15AD
:1041B8006E6F6B516C116D116E11D8A4E6EF20F083
:1041C800E8EF20F0F0EF20F0000E676F000E686F48
:1041D800000E696F000E6A6F675163190FE168512D
:1041E80064190CE16951651909E16A516619D8B475
:1041F80000EF21F002EF21F005EF21F0D89006EF53
:1042080021F0D88012000001FCA10DEF21F00FEF82
:1042180021F019EF21F075C06CF076C06DF073C015
:104228006EF074C06FF0FFEC24F0000178BF21EF4E
:1042380021F01FEF21F025EF21F0000E786F000E1E
:10424800776F000E7B6F000E7A6F38EF21F0000E4B
:10425800646F200E636F73C065F074C066F031EC54
:104268001FF000017A4B7B2B77517A5D7B51800AD6
:10427800796F7851800A7959D8A045EF21F047EF36
:1042880021F02BEF21F0FCB14CEF21F04EEF21F0A3
:1042980058EF21F075C06CF076C06DF073C06EF009
:1042A80074C06FF0FFEC24F01200000E00016A6F7A
:1042B800000E696F000E686F000E676F81A467EFCC
:1042C80021F069EF21F062EF21F0780EE82EFED799
:1042D80081A471EF21F073EF21F082EF21F0010E3C
:1042E80069C065F06AC066F0D89000016537663726
:1042F8006511696F66516A6F88EF21F0D8900001E7
:104308006935696F6A356A6F81B48DEF21F08FEF77
:1043180021F088EF21F00001674B682B68BF9EEF02
:1043280021F0685109E1080E675DD8A09EEF21F0E1
:10433800A0EF21F062EF21F069C063F06AC064F079
:104348001200210ED3EC26F0000ED3EC26F07F0EDF
:10435800D3EC26F0220ED3EC26F0000ED3EC26F098
:10436800070ED3EC26F0000E0001676F000E666F93
:104378006CEC27F0780E31EC27F0400E31EC27F08A
:104388000001656BDF0E6625D96E010E6721DA6EB6
:10439800DF5031EC27F00001664B672B652B0F0EC1
:1043A8006565D9EF21F0DBEF21F0C6EF21F0660754
:1043B800D8A0670762EC27F00001664B672B040E54
:1043C800675DD8A0EAEF21F0ECEF21F0BCEF21F017
:1043D8001200000E086E000E076E000E066E000E2C
:1043E800056E81A4FAEF21F0FCEF21F0F5EF21F042
:1043F800780EE82EFED781A404EF22F006EF22F013
:1044080014EF22F0010E07C003F008C004F0D890A2
:10441800033604360310076E0450086E19EF22F0B5
:10442800D8900734076E0834086E81B41EEF22F066
:1044380020EF22F019EF22F0054A062A06BE2EEFD9
:1044480022F0065009E1080E055CD8A02EEF22F0F4
:1044580030EF22F0F5EF21F007C001F008C002F0BC
:104468001200000E0001686F000E676F655166113B
:10447800D8B441EF22F043EF22F06BEF22F0010EA7
:10448800696F4BEF22F0D89065376637692B66AFB6
:1044980050EF22F052EF22F047EF22F0D890673722
:1044A80068376551635D66516459D8A05EEF22F0A4
:1044B80060EF22F065EF22F06551635F6651645B3F
:1044C8006781D89066336533692F52EF22F067C051
:1044D80063F068C064F0120000016C6F00016B9F0C
:1044E8003F0E69176CEC27F0D00E31EC27F0000E68
:1044F80031EC27F000016B5118EC26F031EC27F075
:1045080000016A5118EC26F031EC27F000016951DE
:1045180018EC26F031EC27F00001685118EC26F071
:1045280031EC27F000016C5118EC26F031EC27F043
:104538000001665118EC26F031EC27F000016751B4
:1045480018EC26F031EC27F062EC27F012008E0E02
:10455800F66E1C0EF76E000EF86E01EEDFF014EE2C
:1045680000F00900F5CFEEFFE550E150FAE1E25026
:10457800F8E1B00EF66E490EF76E000EF86E01EE19
:104588007BF010EE4DF00900F5CFEEFFE550E1505D
:10459800FAE101EE00F07B0EEE6AE806FDE10001AB
:1045A800FC6BFB6BFA6B00EE4AF0150EEE6AE80640
:1045B800FDE15F905F92000EF86E0001D8EF13F0F6
:1045C80063C008F164C009F163C0F6FF64C0F7FF77
:1045D8000800F5CF0AF1010E00016325656F000E92
:1045E8006421666F65C0F6FF66C0F7FF0800F5CF67
:1045F8000BF1020E6325656F000E6421666F65C0BE
:10460800F6FF66C0F7FF0800F5CF0CF1030E63252F
:10461800656F000E6421666F65C0F6FF66C0F7FF20
:104628000800F5CF0DF101010E6B1200000E00011C
:10463800706F0A0E6F6F2FEF23F06FC063F070C0BA
:1046480064F0000E666F0A0E656F85EC26F063C095
:104658006FF064C070F000016F516B5D70516C5960
:10466800D8B039EF23F03BEF23F021EF23F06F515F
:104678006903F3CF6DF0F4CF6EF06A03F3506E2741
:1046880070516903F3506E276B516D25696F6C513A
:104698006E216A6F1200000165516611D8B457EF98
:1046A80023F059EF23F07DEF23F0010E676F61EFE0
:1046B80023F0D89065376637672B66AF66EF23F02F
:1046C80068EF23F05DEF23F06551635D665164592F
:1046D800D8A071EF23F073EF23F077EF23F0655143
:1046E800635F6651645BD89066336533672F68EF04
:1046F80023F063C063F064C064F01200000E0E6E15
:104708000A0E0D6E96EF23F00DC001F00EC002F0F8
:10471800000E046E0A0E036EC0EC26F001C00DF008
:1047280002C00EF00D50095C0E500A58D8B09FEF29
:1047380023F0A1EF23F088EF23F00D500702F3CF09
:104748000BF0F4CF0CF00802F3500C260E500702C1
:10475800F3500C2609500B24076E0A500C20086EE3
:104768001200000166BFBBEF23F0BDEF23F0C7EFD7
:1047780023F063C063F064C064F065C065F066C090
:1047880066F0E0EF23F063C067F064C068F065C0CE
:1047980069F066C06AF0671F681F691F6A1F672B88
:1047A800000E682369236A2367C063F068C064F059
:1047B80069C065F06AC066F0120000016951D96EDF
:1047C800DA6A030EFDEC25F07F0BADEC26F0DF6E08
:1047D80000016651D96EDA6A040EFDEC25F03F0B34
:1047E800ADEC26F0DF6E00016751D96EDA6A050E6E
:1047F800FDEC25F01F0BADEC26F0DF6E00016851D3
:10480800D96EDA6A060EFDEC25F0ADEC26F0DF6E07
:104818001200CC0E0101D26F010ED36FC8C1D4F1C2
:10482800C9C1D5F1000ED76F000ED66F000EDE6F2E
:10483800000EDD6FD40E0001F06F010EF16FCAC1DA
:10484800F2F0CBC1F3F0D20EF46F010EF56FB1ECBC
:1048580024F00101D651C825D96ED751C921DA6E85
:10486800DF6A120065C06BF066C06CF063C069F067
:1048780064C06AF050EF24F06BC0D9FF6CC0DAFF57
:10488800DF506D6F6B4B6C2B69C0D9FF6AC0DAFFC4
:104898006DC0DFFF694B6A2B00016707D8A0680766
:1048A800672906E16829D8A45CEF24F05EEF24F0BC
:1048B80040EF24F0120063C065F064C066F068EF52
:1048C80024F00001634B642B63C0F6FF64C0F7FF5C
:1048D800F86A070EF76403D00800F55005D0F6CF44
:1048E800E1FFF7CFE2FFE7500009D8A47EEF24F0FC
:1048F80080EF24F065EF24F000016551635D636F7C
:1049080066516459646F12000600D9CF46F0DACFB9
:1049180047F0F3CF48F0F4CF49F09EA096EF24F08B
:1049280098EF24F0A7EF24F00B0ECF6EDC0ECE6EBE
:10493800540E366E500E376EEDEC1BF036C04CF050
:1049480037C04DF09E9049C0F4FF48C0F3FF47C000
:10495800DAFF46C0D9FF5F921100F2C0F6F0F3C04B
:10496800F7F0C4EF24F0F0C0E1F0F1C0E2F0F60E89
:104978000001E36FF4C0E4F0F5C0E5F0DDEC07F00A
:10498800F6C0F6FFF7C0F7FF0800F5500009D8A4F5
:10499800D0EF24F0D2EF24F0B7EF24F0000E00019E
:1049A800F16F000EF06F1200446F6D696E676F0053
:1049B800000000536567756E64610000000054656F
:1049C800726361000000000000517561727461003B
:1049D800000000005175696E74610000000000530A
:1049E8006578746100000000000053616261646FC3
:0549F8000000000000BA
:1049FE00000E0001726F000E716F12EF25F070C085
:104A0E0063F0646B6EC065F06FC066F031EC1FF042
:104A1E000001714B722B71516C25D96E72516D2143
:104A2E00DA6EDF50706F7051D8A420EF25F022EFB0
:104A3E0025F006EF25F01200000E0001801B000E7F
:104A4E00811B000E821B800E831B7CC063F07DC019
:104A5E0064F07EC065F07FC066F080C067F081C0F4
:104A6E0068F082C069F083C06AF081EC05F063C023
:104A7E007CF064C07DF065C07EF066C07FF01200F1
:104A8E000001636F9382938063C0C7FF280EC66ECA
:104A9E00C56A800E00016319D8A458EF25F05AEFAD
:104AAE0025F05EEF25F0770EC86E68EF25F06351A6
:104ABE00D8A464EF25F066EF25F068EF25F01D0E03
:104ACE00C86E120000016851D96EDA6A000EFDEC54
:104ADE0025F07F0BADEC26F0DF6E00016751D96E2D
:104AEE00DA6A010EFDEC25F07F0BADEC26F0DF6EE1
:104AFE0000016651D96EDA6A020EFDEC25F03F0B0D
:104B0E00ADEC26F0DF6E120063C067F064C068F093
:104B1E0065C0F6FF66C0F7FF0001654B662B67C0E8
:104B2E00D9FF68C0DAFF674B682B0800F5CFDFFFAF
:104B3E00DF50D8A4A5EF25F0A7EF25F08FEF25F0D5
:104B4E00120000016351641165116611D8B4B2EF01
:104B5E0025F0B4EF25F0BCEF25F0000E631B000E20
:104B6E00641B000E651B800E661B63C063F064C081
:104B7E0064F065C065F066C066F0120063C069F04F
:104B8E0064C06AF0D3EF25F069C0D9FF6AC0DAFFBE
:104B9E0065C0DFFF694B6A2B00016707D8A0680765
:104BAE00672906E16829D8A4DFEF25F0E1EF25F0AB
:104BBE00CBEF25F01200000164BFE8EF25F0EAEF1D
:104BCE0025F0F0EF25F063C063F064C064F0FCEFF5
:104BDE0025F063C065F064C066F0651F661F654B07
:104BEE00662B65C063F066C064F012000001646F4E
:104BFE006CEC27F0D00E31EC27F00001645131EC53
:104C0E0027F076EC27F0D10E31EC27F04CEC27F0A4
:104C1E000001656F57EC27F062EC27F0000165513B
:104C2E0012000001636F63C065F00001646B090E32
:104C3E00656524EF26F026EF26F02CEF26F00A0EFF
:104C4E00655F100E64271EEF26F0655164276451D0
:104C5E00120081B435EF26F037EF26F030EF26F054
:104C6E0081A43CEF26F03EEF26F037EF26F081B41C
:104C7E0043EF26F045EF26F03EEF26F0120081B40A
:104C8E004BEF26F04DEF26F046EF26F081A452EFC3
:104C9E0026F054EF26F04DEF26F081B459EF26F0B2
:104CAE005BEF26F054EF26F0120000016B6F00014F
:104CBE006B512E0DF3CF63F0F4CF64F0000E666FE0
:104CCE00B40E656F97EC1FF0000163510E0F0101DA
:104CDE00006F120093948A94020E0001646F380ED6
:104CEE00636FAD0EE82EFED7632FFCD7642FFAD775
:104CFE008A84780EE82EFED7938412000001635149
:104D0E006503F3CF67F0F4CF68F063516603F35099
:104D1E00682764516503F350682767C063F068C065
:104D2E0064F0120093948A94020E026E380E016E95
:104D3E00AD0EE82EFED7012EFCD7022EFAD70000BC
:104D4E008A84780EE82EFED7938412000001646FD9
:104D5E0064C065F00001D8906533780E651764C0A5
:104D6E0063F00F0E63176541E8423F0B632565251F
:104D7E00120001500302F3CF05F0F4CF06F00150FC
:104D8E000402F350062602500302F350062605C015
:104D9E0001F006C002F012000001646F6CEC27F007
:104DAE00780E31EC27F0000E31EC27F00001645143
:104DBE0031EC27F062EC27F01200939881983D0EAB
:104DCE000001646FE10E636F3F0EE82EFED7632F76
:104DDE00FCD7642FFAD700D01200DF0E0001636FEC
:104DEE00010E646F000E666F000E656F040E686F25
:104DFE00000E676FC5EC25F0120081863D0E000196
:104E0E00646FE10E636F3F0EE82EFED7632FFCD763
:104E1E00642FFAD700D0120081883D0E0001646F16
:104E2E00E10E636F3F0EE82EFED7632FFCD7642F83
:104E3E00FAD700D0120081963D0E0001646FE10E8C
:104E4E00636F3F0EE82EFED7632FFCD7642FFAD781
:104E5E0000D012000001636F63C0C9FF9EA63AEF37
:104E6E0027F03CEF27F035EF27F09E96C550120045
:104E7E0095908C90F28EF28AF294500ED56ED58E5D
:104E8E00000ED76E320ED66E1200C5869EA652EF5B
:104E9E0027F054EF27F04DEF27F09E96C9501200E1
:104EAE00C58AC5889EA65EEF27F060EF27F059EF02
:104EBE0027F09E961200C5849EA668EF27F06AEF33
:104ECE0027F063EF27F09E961200C5809EA672EF24
:104EDE0027F074EF27F06DEF27F09E961200C58233
:104EEE009EA67CEF27F07EEF27F077EF27F09E96B9
:0C4EFE001200800E1200400E1200120084
:106B4800001010205F00000000000000000000009E
:106B5800000000000000000000000000000000002D
:106B6800000000000000000000F8FCFCFCF8000039
:106B780000000000000000000000737373000000B4
:106B88000000000000000000001E3E3E0000003E25
:106B98003E1E000000000000000000000000000091
:106BA800000000000000303030FEFE30303030FE93
:106BB800FE30303000000C0C0C7F7F0C0C0C0C7F6E
:106BC8007F0C0C0C00000000F0F898FE9898FE98D6
:106BD80098180000000000001819197F19197F196A
:106BE8001F0F0000000000000038383880C0E07037
:106BF8003800000000000000001C0E0703011C1CE8
:106C08001C0000000000000038FCC4C4FC38000070
:106C180000800000000000001E3F2121333F1E1E9F
:106C2800372300000000000000203C3C1C0000004E
:106C3800000000000000000000000000000000004C
:106C4800000000000000000000C0E0F0381C0C0448
:106C580004000000000000000003070F1C3830206B
:106C680020000000000000000004040C1C38F0E0C4
:106C7800C00000000000000000202030381C0F0772
:106C880003000000000000808890E0E0FCFCE0E0E9
:106C98009088800000000001110907073F3F07079F
:106CA800091101000000000000808080F0F0808061
:106CB8008000000000000000000101010F0F010129
:106CC80001000000000000000000000000000000BB
:106CD8000000000000000000004078783800000044
:106CE800000000000000000080808080808080809C
:106CF8008080000000000000010101010101010184
:106D08000101000000000000000000000000000079
:106D180000000000000000000000383838000000C3
:106D2800000000000000000000000000000080C01B
:106D3800E070381C000000002030381C0E070301EA
:106D48000000000000000000F8FCFC0484E474FC6F
:106D5800FCF80000000000001F3F3F2E2721203FC5
:106D68003F1F000000000000606060F0FCFC0000B5
:106D780000000000000000002020203F3F3F2020AE
:106D88002000000000000000181C1C040484CCFC37
:106D9800783000000000000030383C2E27232138CE
:106DA8003838000000000000181C1C848484CC7C47
:106DB8007830000000000000183838212121333EC7
:106DC8001E0C00000000000080C0603018FCFCFCB5
:106DD800000000000000000003030323233F3F3F9F
:106DE8002323000000000000FCFCFC8484848484CD
:106DF8000404000000000000193939212121333F23
:106E08001F0E000000000000E0F0F89C8C848484D1
:106E180080000000000000001F3F3F212121213F8A
:106E28003F1F0000000000003C3C3C0404040484B4
:106E3800FCFC7C0000000000000000383C3E07031A
:106E48000100000000000000787CFCC4C48484FCBD
:106E58007C780000000000001E3E3F212123233FD4
:106E68003E1E000000000000F8FCFC84848484FCC2
:106E7800FCF8000000000000000121212131391F29
:106E88000F07000000000000000000707070000094
:106E980000000000000000000000000E0E0E0000C0
:106EA800000000000000000000000070707000008A
:106EB80000000000000000000000101E1E0E000070
:106EC800000000000000000080C0E070381C0E06C2
:106ED80002000000000000000103070E1C3870606B
:106EE80040000000000000606060606060606060FA
:106EF8006060600000000006060606060606060634
:106F0800060606000000000002060E1C3870E0C0ED
:106F18008000000000000000406070381C0E07036D
:106F28000100000000000000181C0C0E0686CEFCB4
:106F38007C3800000000000000000000737373003C
:106F48000000000000000000FCFEFE0202C2C2C2F7
:106F5800FEFEFC00000000003F3F7F60606363634B
:106F68006343030000000000E0F0F81C0C0C1CF860
:106F7800F0E00000000000003F3F3F020202023F35
:106F88003F3F00000000000004FCFCFC848484FCFB
:106F9800FC78000000000000203F3F3F2121213FF6
:106FA8003F1E000000000000F0F8FC0C0404041C64
:106FB8001C180000000000000F1F3F302020203860
:106FC800381800000000000004FCFCFC04040CFC61
:106FD800F8F0000000000000203F3F3F2020303F35
:106FE8001F0F00000000000004FCFCFC848484C423
:106FF800CC1C000000000000203F3F3F212121233E
:10700800333800000000000004FCFCFC848484C4C5
:10701800CC1C000000000000203F3F3F210101037D
:107028000300000000000000F0F8FC0C0404043C1D
:107038003C380000000000000F1F3F302022223E95
:107048003E3E000000000000FCFCFC808080FCFC50
:10705800FC000000000000003F3F3F0101013F3FEE
:107068003F00000000000000000404FCFCFC0404D5
:1070780000000000000000000020203F3F3F2020CB
:107088000000000000000000000000000404FCFCF8
:10709800FC0404000000001E1E3E202020203F3F6C
:1070A8001F0000000000000004FCFCFCC0E0703C75
:1070B8001C0C000000000000203F3F3F03070E3C6F
:1070C800383000000000000004FCFCFC0400000054
:1070D8000000000000000000203F3F3F202020303B
:1070E800383C000000000000FCFCFC78F0E0F07880
:1070F800FCFCFC00000000003F3F3F0000010000D6
:107108003F3F3F0000000000FCFCFC70E0C0800036
:10711800FCFCFC00000000003F3F3F0000010307AB
:107128003F3F3F0000000000E0F0F81C0C0C0C1C76
:10713800F8F0E00000000000070F1F38303030384A
:107148001F0F07000000000004FCFCFC848484FC82
:10715800FC78000000000000203F3F3F21010101B2
:107168000100000000000000E0F8F81C0C040C1CF2
:10717800F8F8E00000000000071F1F18185C5E7E8A
:107188007F7F47000000000004FCFCFC848484FC32
:10719800FC78000000000000203F3F3F0101033F52
:1071A8003F3C00000000000078FCFC84848484BC20
:1071B8003C380000000000001C3C3D212121213FFB
:1071C8003F1E0000000000001C0C0404FCFCFC0432
:1071D800040C1C0000000000000020203F3F3F205E
:1071E8002000000000000000FCFCFC000000FCFC8B
:1071F800FC000000000000001F3F3F2020203F3F10
:107208001F00000000000000FCFCFC000000FCFC6B
:10721800FC00000000000000070F1F3830381F0F67
:107228000700000000000000FCFCFC0000800000DB
:10723800FCFCFC0000000000030F3F3C3C0F3C3C02
:107248003F0F0300000000001C3C7CE0C0E07C3CD9
:107258001C00000000000000383C3E0703073E3CCD
:1072680038000000000000007CFCFC800080FCFC72
:107278007C000000000000000020213F3F3F21204B
:1072880000000000000000003C1C0C0484C4E47CE6
:107298003C1C000000000000383C3E272321203021
:1072A800383C0000000000000000FCFCFC04040462
:1072B800040000000000000000003F3F3F202020A5
:1072C80020000000000000001C3870E0C0800000B2
:1072D8000000000000000000000000000103070E8D
:1072E8001C18302020000000000004040404FCFCEA
:1072F800FC000000000000000000202020203F3F8C
:107308003F000000000000002030381C0E0E1C3822
:107318003020000000000000000000000000000015
:107328000000000000000000000000000000000055
:10733800000000000000C0C0C0C0C0C0C0C0C0C0C5
:10734800C0C0C0C0C00000000C0C3C3030000000C1
:107358000000000000000000000000000000000025
:107368000000000000000000004040404040C0C055
:1073780080000000000000001C3E3E2222223F1F29
:107388003F2000000000000004FCFCFC404040C01E
:10739800C080000000000000203F1F3F2020203F49
:1073A8003F1F00000000000080C0C0404040C0C037
:1073B80080000000000000001F3F3F2020203939D6
:1073C800190000000000000080C0C0404044FCFCE0
:1073D800FC040000000000001F3F3F2020203F1F4A
:1073E8003F2000000000000080C0C0404040C0C0F6
:1073F80080000000000000001F3F3F2222223B3B8C
:107408001B000000000000008080F8FCFC849C9CAD
:10741800180000000000000021213F3F3F2121010A
:10742800000000000000000080C0C0404040C08054
:10743800C04000000000000047CFDF989898FFFF89
:107448007F0000000000000004FCFCFC804040C0FD
:10745800C080000000000000203F3F3F0100003FC7
:107468003F3F00000000000000404040DCDCDC0042
:107478000000000000000000002020203F3F3F20C7
:107488002020000000000000000000404040DCDC3C
:10749800DC000000000000002060E08080C0FFFFEA
:1074A8007F0000000000000004FCFCFC000080C01D
:1074B800C040000000000000203F3F3F02070F3D92
:1074C800383000000000000000040404FCFCFC004C
:1074D8000000000000000000002020203F3F3F2067
:1074E8002020000000000000C0C0C04040C0404054
:1074F800C0C08000000000003F3F3F00003F000088
:107508003F3F3F0000000000C0C0C0404040C0C036
:1075180080000000000000003F3F3F0000003F3FA8
:107528003F0000000000000080C0C0404040C0C0D4
:1075380080000000000000001F3F3F2020203F3F48
:107548001F0000000000000040C080C0404040C054
:10755800C08000000000000080FFFFFF9010101F97
:107568001F0F000000000080C0C0404040C080C025
:10757800400000000000000F1F1F101090FFFFFFC9
:10758800800000000000000040C0C0C080C0C0C033
:10759800C080000000000000203F3F3F21000001A4
:1075A800010100000000000080C0C040404040C011
:1075B8008000000000000000193B232626263C3DE1
:1075C80019000000000000004040E0F0F840404092
:1075D800400000000000000000001F3F3F20383836
:1075E8001800000000000000C0C0C0000000C0C0BB
:1075F800C0000000000000001F3F3F2020203F1F68
:107608003F20000000000000C0C0C0000000C0C053
:10761800C000000000000000070F1F3830381F0F9F
:107628000700000000000000C0C0C000000000000B
:10763800C0C0C00000000000070F3F38380E3838BF
:107648003F0F070000000000C0C0C00000C0C0C05D
:10765800000000000000000030393F0F0F3F3930B4
:10766800000000000000000000C0C0C0000000C012
:10767800C0C000000000000080878F9FD8F8783FC6
:107688000F07000000000000C0C0404040C0C0C05C
:10769800000000000000000031383C2E272331385C
:1076A80000000000000000008080C0787C3C0404DA
:1076B80004040000000000000101031E3E3C2020DD
:1076C800202000000000000000000000FEFEFE0078
:1076D8000000000000000000000000007F7F7F0025
:1076E8000000000000000000040404043C7C78C092
:1076F8008080000000000000202020203C3E1E0367
:1077080001010000000000383C3C040C1C3830200B
:107718003C3C1C00000000000000000000000000CD
