:0400000007EF00F016
:100008005C824CED1DF0EBEF1EF00001816B4BC0E4
:1000180082F04CC083F04DC084F04EC085F085BF9F
:100028001AEF00F018EF00F02EEF00F0010E816FCC
:1000380082C001F083C002F084C003F085C004F0E0
:10004800B0EC21F001C082F002C083F003C084F05C
:1000580004C085F0000E0001876F000E866FC4C0D3
:1000680075F0C5C076F08151D8B43DEF00F03FEF90
:1000780000F053EF00F08151D8A445EF00F047EFAE
:1000880000F04DEF00F0000E676F2B0E666F51EF1A
:1000980000F0000E676F2D0E666F66C081F082C09B
:1000A80001F083C002F084C003F085C004F021ECA5
:1000B8001AF001040210D8A464EF00F066EF00F013
:1000C80097EF00F000018151D8B46DEF00F06FEFA9
:1000D80000F078EF00F081C000F17507D8A076072E
:1000E800000E876F010E866F000E8625016E010EC9
:1000F8008721026EF30E036E7F0E046E94EC21F0DE
:100108000001FD0E7527FF0E76234AC00FF0000E82
:10011800106E010E116E75C012F076C013F09AECD5
:100128001DF033EF05F082C001F083C002F084C0F7
:1001380003F085C004F021EC1AF001500210D8A495
:10014800A8EF00F0AAEF00F0CAEF00F0000181511B
:10015800D8B4B1EF00F0B3EF00F0BCEF00F081C00D
:1001680000F17507D8A07607000E876F010E866F1D
:10017800000E8625016E010E8721026EF70E036EB2
:100188007F0E046E94EC21F084EF00F0000E000165
:10019800886F000E896F800E8A6F3F0E8B6F000E7E
:1001A800706F000E6F6F82C001F083C002F084C0D0
:1001B80003F085C004F0000E056E000E066E000EFA
:1001C800076E000E086EF7EC1CF0D8B0EEEF00F0EA
:1001D800F0EF00F0CFEF01F0FDEF00F071C088F014
:1001E80072C089F073C08AF074C08BF000016F4B45
:1001F800702B88C001F089C002F08AC003F08BC060
:1002080004F0000E056E000E066E200E076E410EFD
:10021800086EB4EC09F001C071F002C072F003C0BE
:1002280073F004C074F000017151825D016E725167
:100238008359026E73518459036E74518559046E43
:10024800ECEC1FF004BE34EF01F004500310021070
:1002580009E1020E015CD8A034EF01F036EF01F09D
:10026800F2EF00F071C01AF072C01BF073C01CF0FE
:1002780074C01DF082C01EF083C01FF084C020F03F
:1002880085C021F09FEC19F0D8A04DEF01F04FEF99
:1002980001F0F2EF00F000018851825D016E895192
:1002A8008359026E8A518459036E8B518559046EA5
:1002B800ECEC1FF004BE6EEF01F0045003100210C6
:1002C80007E1020E015CD8B06CEF01F06EEF01F0AF
:1002D800B6EF01F088C082F089C083F08AC084F04C
:1002E8008BC085F0CFEF01F088C01DF089C01EF0EB
:1002F8008AC01FF08BC020F0000E216E000E226E07
:10030800200E236E410E246EC9EC0FF01DC088F03C
:100318001EC089F01FC08AF020C08BF000016F0753
:10032800D8A070078851825D016E89518359026E89
:100338008A518459036E8B518559046EECEC1FF079
:1003480004BEB4EF01F004500310021007E1020EDE
:10035800015CD8B0B2EF01F0B4EF01F0B6EF01F0F4
:100368006EEF01F082C01AF083C01BF084C01CF04D
:1003780085C01DF088C01EF089C01FF08AC020F01B
:100388008BC021F09FEC19F0D8A0CDEF01F0CFEF92
:1003980001F078EF01F04FC069F069C06AF0000120
:1003A800C7BFD9EF01F0DBEF01F0E1EF01F0C6C004
:1003B80062F0C7C063F0E5EF01F0000E636F060E50
:1003C800626F62C06DF063C06EF06D4B6E2B660E8F
:1003D8006A19D8A4F2EF01F0F4EF01F014EF02F07B
:1003E80070BFFBEF01F0F9EF01F007EF02F0000E2C
:1003F800886F000E896F800E8A6F3F0E8B6F000E1C
:10040800706F000E6F6F670E6919D8B40EEF02F0A7
:1004180010EF02F014EF02F06F516D2770516E2348
:10042800000E806F000E7F6F82C077F083C078F077
:1004380084C079F085C07AF088C071F089C072F004
:100448008AC073F08BC074F0A5EF02F077C01DF07E
:1004580078C01EF079C01FF07AC020F088C021F063
:1004680089C022F08AC023F08BC024F0C9EC0FF0B9
:100478001DC036F01EC037F01FC038F020C039F05C
:10048800EFEC12F036C07BF037C07CF038C07DF05E
:1004980039C07EF07BC001F07CC002F07DC003F063
:1004A8007EC004F01CEC19F001C06BF002C06CF0C7
:1004B80077C01AF078C01BF079C01CF07AC01DF024
:1004C8007BC005F07CC006F07DC007F07EC008F058
:1004D80088C001F089C002F08AC003F08BC004F024
:1004E800B4EC09F001C01EF002C01FF003C020F0F8
:1004F80004C021F0D8EC20F01AC077F01BC078F0C7
:100508001CC079F01DC07AF088C01DF089C01EF0AB
:100518008AC01FF08BC020F0000E216E000E226EE4
:10052800200E236E410E246EC9EC0FF01DC088F01A
:100538001EC089F01FC08AF020C08BF000017F4BDD
:10054800802B6D517F5D8051800A506E6E51800AFC
:100558005058D8A0B2EF02F0B4EF02F02AEF02F040
:1005680088C001F089C002F08AC003F08BC004F093
:10057800000E056E000E066EA00E076E400E086E89
:10058800B4EC09F001C07BF002C07CF003C07DF040
:1005980004C07EF077C01AF078C01BF079C01CF058
:1005A8007AC01DF07BC01EF07CC01FF07DC020F01B
:1005B8007EC021F09FEC19F0D8B0E5EF02F0E7EF2C
:1005C80002F0F2EF02F0000E00017B6F000E7C6F6C
:1005D800000E7D6F000E7E6F1BEF03F077C001F0F9
:1005E80078C002F079C003F07AC004F07BC005F04F
:1005F8007CC006F07DC007F07EC008F0F7EC1CF068
:10060800D8A009EF03F00BEF03F01BEF03F0000194
:100618006BB111EF03F013EF03F01BEF03F0000EC3
:100628007B6F000E7C6F000E7D6F000E7E6F82C0A8
:1006380001F083C002F084C003F085C004F07BC0E1
:1006480005F07CC006F07DC007F07EC008F034ECF1
:1006580005F001C077F002C078F003C079F004C05B
:100668007AF077C01AF078C01BF079C01CF07AC015
:100678001DF0000E056E000E066E200E076E410E70
:10068800086E71C001F072C002F073C003F074C04C
:1006980004F0B4EC09F001C01EF002C01FF003C062
:1006A80020F004C021F09FEC19F0D8A05EEF03F011
:1006B80060EF03F089EF03F000016F4B702B71C0FE
:1006C80001F072C002F073C003F074C004F0000EB1
:1006D800056E000E066E200E076E410E086EB4EC15
:1006E80009F001C071F002C072F003C073F004C0D9
:1006F80074F0660E00016A19D8A485EF03F087EF3D
:1007080003F089EF03F06D4B6E2B71C088F072C057
:1007180089F073C08AF074C08BF06FC060F070C04D
:1007280061F00001686B000E656F000E646F000ECB
:10073800806F000E7F6F86EF04F077C01DF078C0E1
:100748001EF079C01FF07AC020F088C021F089C05F
:1007580022F08AC023F08BC024F0C9EC0FF01DC032
:1007680036F01EC037F01FC038F020C039F0EFEC6B
:1007780012F036C07BF037C07CF038C07DF039C04D
:100788007EF07BC001F07CC002F07DC003F07EC02B
:1007980004F01CEC19F002BEDDEF03F0025007E193
:1007A8000A0E015CD8B0DBEF03F0DDEF03F0EDEFEC
:1007B80003F07BC001F07CC002F07DC003F07EC076
:1007C80004F01CEC19F001C06BF002C06CF0F2EF01
:1007D80003F0000E00016C6F090E6B6F0001685189
:1007E800D8A4F9EF03F0FBEF03F023EF04F061BFA7
:1007F80002EF04F000EF04F023EF04F0000E86256A
:10080800D96E010E8721DA6E2E0EDF6E864B872B8E
:100818007507D8A07607010E686F23EF04F0000E65
:100828008625D96E010E8721DA6E300EDF6E864B73
:10083800872B7507D8A076076407D8A06507645189
:100848006511D8A42AEF04F02CEF04F013EF04F09C
:10085800000E8625D96E010E8721DA6E6B51300F96
:10086800DF6E864B872B7507D8A0760777C01AF0FE
:1008780078C01BF079C01CF07AC01DF07BC005F071
:100888007CC006F07DC007F07EC008F088C001F08B
:1008980089C002F08AC003F08BC004F0B4EC09F000
:1008A80001C01EF002C01FF003C020F004C021F0F8
:1008B800D8EC20F01AC077F01BC078F01CC079F093
:1008C8001DC07AF088C01DF089C01EF08AC01FF0D4
:1008D8008BC020F0000E216E000E226E200E236EBB
:1008E800410E246EC9EC0FF01DC088F01EC089F0BF
:1008F8001FC08AF020C08BF000016007D8A06107F4
:100908007F4B802B6D517F5D8051800A506E6E51F8
:10091800800A5058D8B093EF04F095EF04F0A3EF95
:1009280004F087BFA1EF04F0875109E14B0E865D03
:10093800D8A0A1EF04F0A3EF04F0A1EF03F0000E9C
:10094800806F4F0E7F6F000E7F25D96E010E8021BC
:10095800DA6EDF6A000E506E010E516E8651505EDF
:100968008751515A7F515024016E80515120026E97
:10097800000E036E010E046E86C005F087C006F0F7
:1009880017EC20F0000186517F5D866F87518059F2
:10099800876F8151D8A4D3EF04F0D6EF04F0010E8D
:1009A800D7EF04F0000E7F6F806BD0A3DEEF04F06A
:1009B800E0EF04F00EEF05F0F0EF04F08607D8A0A2
:1009C8008707000E8625D96E010E8721DA6E300E54
:1009D800DF6E7507D8A0760775517F5D8051800A54
:1009E800506E7651800A5058D8B0FDEF04F0FFEFF2
:1009F80004F00EEF05F086517F5D8051800A506E3D
:100A08008751800A5058D8A00CEF05F00EEF05F07A
:100A1800E2EF04F08151D8B414EF05F016EF05F0B9
:100A280021EF05F08607D8A08707000E8625D96E26
:100A3800010E8721DA6E81C0DFFF7F51755F80511B
:100A4800765B4AC00FF0000E8625106E010E8721D6
:100A5800116E75C012F076C013F09AEC1DF01200FA
:100A68000450800B0D6E045004240F6E03AE3FEF4C
:100A780005F041EF05F042EF05F00F800F50D8B4B4
:100A880048EF05F04AEF05F05EEF05F00F28D8A40F
:100A980050EF05F052EF05F05AEF05F0000E016E29
:100AA800000E026E000E036E000E046E038E046AC2
:100AB80066EF05F0000E016E000E026E000E036E6A
:100AC800000E046E0850800B0E6E0D500E18D8B430
:100AD80070EF05F072EF05F073EF05F00D8C08501C
:100AE80008240E6E07AE7BEF05F07DEF05F07EEF74
:100AF80005F00E800E50D8B484EF05F086EF05F0AF
:100B08009AEF05F00E28D8A48CEF05F08EEF05F0CB
:100B180096EF05F0000E056E000E066E000E076ECD
:100B2800000E086E078E086AA2EF05F0000E056E2B
:100B3800000E066E000E076E000E086E0F500E5C5B
:100B4800D8B0A9EF05F0ABEF05F0D2EF05F00DAC8A
:100B5800B0EF05F0B2EF05F0B4EF05F0800E0D1A16
:100B68000FC010F00EC00FF010C00EF001C010F052
:100B780005C001F010C005F002C010F006C002F078
:100B880010C006F003C010F007C003F010C007F053
:100B980004C010F008C004F010C008F0106A0F502C
:100BA8000EC009F00A6A095E000E0A5A0ABEE6EF8C
:100BB80005F00A5009E11A0E095CD8A0E6EF05F025
:100BC800E8EF05F01FEF06F00150021003100410C3
:100BD800D8A4F1EF05F0F4EF05F0010EF5EF05F0FC
:100BE800000E106E000E016E000E026E000E036EF7
:100BF800000E046E0EC00FF028EF06F010A007EFED
:100C080006F009EF06F00FEF06F0D8901030010952
:100C1800106E11EF06F0D890103201A016EF06F012
:100C280018EF06F019EF06F0108E04340432033280
:100C3800023201320F2A0E500F5CD8A026EF06F0C0
:100C480028EF06F002EF06F00DBC2DEF06F02FEFAF
:100C580006F06FEF06F00F50D8A435EF06F037EF27
:100C680006F041EF06F0000E016E000E026E000E57
:100C7800036E000E046E8EEF07F005500126065035
:100C88000222075003220850042204A04EEF06F067
:100C980050EF06F0FCEF06F010A055EF06F057EF06
:100CA80006F05DEF06F0D89010300109106E5FEF86
:100CB80006F0D890103201A064EF06F066EF06F057
:100CC80067EF06F0108E0434043203320232013228
:100CD8000F2AFCEF06F00550015C06500258075039
:100CE80003580450800A096E0850800A0958D8B081
:100CF80080EF06F082EF06F0ADEF06F00150055CDC
:100D0800096E025006580A6E035007580B6E0450BD
:100D180008580C6EFF0E0924016EFF0E0A20026EA1
:100D2800FF0E0B20036EFF0E0C20046E800E0D1AB2
:100D3800106C1050D8A4A3EF06F0A5EF06F0B5EF9D
:100D480006F0010E0126000E022203220422B5EF4E
:100D580006F00550015E0650025A0750035A085023
:100D6800045A0150021003100410D8A4BEEF06F074
:100D7800C0EF06F0F5EF06F01050D8A4C6EF06F065
:100D8800C8EF06F0F5EF06F0000E016E000E026ED9
:100D9800000E036E000E046E8EEF07F0D890013639
:100DA80002360336043610AEDCEF06F0DEEF06F04E
:100DB800DFEF06F0018010A0E4EF06F0E6EF06F0A2
:100DC800EAEF06F0D8801036ECEF06F0D89010362F
:100DD8000F50D8B4F2EF06F0F4EF06F0F5EF06F096
:100DE8000F0603AEFAEF06F0FCEF06F0D2EF06F0BE
:100DF8000E6A10AE02EF07F004EF07F01CEF07F0E1
:100E080010C009F07F0E0916D8B40DEF07F00FEFE8
:100E180007F013EF07F0010E0E6E1CEF07F001A0AC
:100E280018EF07F01AEF07F01CEF07F00FEF07F0C5
:100E38000E50D8B422EF07F024EF07F04FEF07F079
:100E4800010E0126000E02220322042204A02FEF25
:100E580007F031EF07F04FEF07F001C009F002C0CB
:100E68000AF003C00BF004C00CF00C340C320B3247
:100E78000A32093209C001F00AC002F00BC003F0BF
:100E88000CC004F00F28D8B44CEF07F04EEF07F071
:100E98004FEF07F00F2A0F28D8B455EF07F057EF98
:100EA80007F05FEF07F00F50D8A45DEF07F05FEF92
:100EB80007F070EF07F0000E016E000E026E000ED4
:100EC800036E000E046E0F50D8A46DEF07F06FEF9D
:100ED80007F070EF07F00D6A0FA075EF07F077EFD6
:100EE80007F07AEF07F0038E7BEF07F0039ED890A8
:100EF8000F30046E0DAE83EF07F085EF07F086EF35
:100F080007F0048E01C001F002C002F003C003F034
:100F180004C004F012005350D96EDA6ADECFF6FF2F
:100F2800DDCFF7FF0800F550250AD8A49EEF07F09B
:100F3800A0EF07F0A2EF09F05350D96EDA6ADE2A63
:100F4800000EDD22000E0001C56F000EC46FC4C084
:100F5800D0F0C669C769916BCEEF07F0D0835350C4
:100F6800D96EDA6ADE2A000EDD22CEEF07F0010E16
:100F7800916FCEEF07F05350D96EDA6ADECFF6FFE5
:100F8800DDCFF7FF0800F550300AD8B4B2EF07F00C
:100F9800BBEF07F09151D8B4D4EF07F0D6EF07F0C4
:100FA800BFEF07F053C001F054C002F04CEC1CF046
:100FB80001C0C4F002C0C5F00001C5BFE8EF07F0EA
:100FC800E6EF07F0EDEF07F0D081C46DC51FD8B08C
:100FD800C52B5350D96EDA6ADECFF6FFDDCFF7FFA7
:100FE8000800F5502E0AD8A4FCEF07F0FEEF07F032
:100FF8000EEF08F05350D96EDA6ADE2A000EDD22B1
:1010080053C001F054C002F04CEC1CF001C0C6F013
:1010180002C0C7F05350D96EDA6ADECF92F0DDCF46
:1010280093F092C0F6FF93C0F7FF0800F550750AD9
:10103800D8A421EF08F023EF08F056EF08F054C0C9
:10104800D9FF55C0DAFF020EDF26DF5CD96EDA6AF7
:10105800DECF8CF0DECF8DF0010E00019225566EAA
:10106800000E9321576E5350D96EDA6A56C0DEFFD0
:1010780057C0DDFF4AEF08F052C017F08CC018F0D7
:101088008DC019F089EC18F0B3EF09F092C0F6FFA3
:1010980093C0F7FF0800F550750AD8B440EF08F080
:1010A80056EF08F00001916B5350D96EDA6ADECF23
:1010B800F6FFDDCFF7FF0800F550730AD8A467EFF5
:1010C80008F069EF08F073EF08F05350D96EDA6A48
:1010D800DE2A000EDD22010E916FBFEF08F053509B
:1010E800D96EDA6ADECFF6FFDDCFF7FF0800F550DC
:1010F8006C0AD8A482EF08F084EF08F0BFEF08F07C
:101108005350D96EDA6ADECF56F0DDCF57F0010EB4
:101118005626000E572256C0F6FF57C0F7FF0800A4
:10112800F5506C0AD8A49BEF08F09DEF08F0BFEFCC
:1011380008F05350D96EDA6ADECF56F0DDCF57F09B
:10114800020E5626000E572256C0F6FF57C0F7FF6C
:101158000800F550730AD8A4B4EF08F0B6EF08F009
:10116800BFEF08F05350D96EDA6A030EDE26000E80
:10117800DD226FEF08F09151D8B4C5EF08F0C7EF42
:1011880008F0DAEF08F052C009F054C0D9FF55C092
:10119800DAFF020EDF26DF5CD96EDA6ADECF0AF0EC
:1011A800DECF0BF0A8EC15F0B3EF09F05350D96E71
:1011B800DA6ADECF92F0DDCF93F092C0F6FF93C0EB
:1011C800F7FF0800F5CF90F0F5EF08F0924B932B5E
:1011D80004EF09F06C0E906F04EF09F0906B04EFC8
:1011E80009F090514C0AD8B4EAEF08F02A0AD8B4AA
:1011F800EEEF08F00A0AD8B4EAEF08F0F2EF08F0C8
:1012080092C0F6FF93C0F7FF0800F550660AD8A40D
:1012180010EF09F012EF09F079EF09F03EEF09F04D
:1012280054C0D9FF55C0DAFFDFCF56F0040EDF26D1
:101238005650D96EDA6ADECF8CF0DECF8DF0DECF75
:101248008EF0DECF8FF049EF09F054C0D9FF55C0BA
:10125800DAFFDFCF56F0040EDF265650D96EDA6A71
:10126800DECF8CF0DECF8DF0DECF8EF0DECF8FF0CC
:1012780049EF09F090514C0AD8B429EF09F0200A37
:10128800D8B414EF09F049EF09F0010E9225566E13
:10129800000E9321576E5350D96EDA6A56C0DEFF9E
:1012A80057C0DDFF6DEF09F052C04AF08CC04BF01B
:1012B8008DC04CF08EC04DF08FC04EF092C0F6FF3E
:1012C80093C0F7FF0800F5CF4FF009EC00F0B3EF3B
:1012D80009F092C0F6FF93C0F7FF0800F550660AC0
:1012E800D8B458EF09F079EF09F05350D96EDA6A9B
:1012F800DECFF6FFDDCFF7FF0800F550250AD8A4AA
:1013080088EF09F08AEF09F09AEF09F05350D96E87
:10131800DA6ADE2A000EDD22000E026E250E016E4C
:1013280052C003F0A2EC1CF0B3EF09F05350D96E91
:10133800DA6ADE2A000EDD22B3EF09F05350D96EC7
:10134800DA6ADECFF6FFDDCFF7FF0800F550016E51
:10135800026A52C003F0A2EC1CF09AEF09F01200E6
:101368000450800B0D6E04500424136E03AEBFEFBF
:1013780009F0C1EF09F0C2EF09F013801350D8B497
:10138800C8EF09F0CAEF09F0DDEF09F01328D8A477
:10139800D0EF09F0D2EF09F0DAEF09F0000E016E94
:1013A800000E026E000E036E000E046E038EE5EF53
:1013B80009F0000E016E000E026E000E036E000EA4
:1013C800046E0850800B0D1A085008240E6E07AEE4
:1013D800F0EF09F0F2EF09F0F3EF09F00E800E508C
:1013E800D8B4F9EF09F0FBEF09F00EEF0AF00E2878
:1013F800D8A401EF0AF003EF0AF00BEF0AF0000E91
:10140800056E000E066E000E076E000E086E078E43
:1014180016EF0AF0000E056E000E066E000E076E3F
:10142800000E086E0E50D8B41CEF0AF01EEF0AF03A
:1014380026EF0AF01350D8A424EF0AF026EF0AF09A
:1014480030EF0AF0000E016E000E026E000E036E01
:10145800000E046EC6EF0BF007500102F3CF18F030
:10146800F4CF19F018500F6E106A116A126A1950E9
:10147800146E156A166A176A06500202F3CF18F03E
:10148800F4CF19F018500F26000E10221122122244
:1014980019501426000E1522162217220550030291
:1014A800F3CF18F0F4CF19F018500F26000E1022C1
:1014B8001122122219501426000E15221622172264
:1014C80011C012F010C011F00FC010F00F6A0550D3
:1014D8000202F3CF18F0F4CF19F018500F26195064
:1014E8001022000E1122000E122206500102F3CF24
:1014F80018F0F4CF19F018500F2619501022000ECA
:101508001122000E122211C012F010C011F00FC0EB
:1015180010F00F6A05500102F3CF18F0F4CF19F05C
:1015280018500F2619501022000E1122000E1222F8
:1015380007500202F3CF18F0F4CF19F01850142610
:1015480019501522000E1622000E1722065003020B
:10155800F3CF18F0F4CF19F01850142619501522AB
:10156800000E1622000E172207500302F3CF18F0C0
:10157800F4CF19F01850096E19500A6E0B6A0C6AEC
:101588000BC00CF00AC00BF009C00AF0096A095038
:1015980014260A5015220B5016220C5017220FC081
:1015A80009F010C00AF011C00BF012C00CF0190EAF
:1015B800E3EF0AF0D8900C320B320A320932E82EE7
:1015C800DEEF0AF0095014260A5015220B50162295
:1015D8000C50172211C012F010C011F00FC010F0FB
:1015E8000F6A0E5013C009F00A6A0926000E0A2273
:1015F800820E0924186EFF0E0A20196E19EF0BF0DF
:10160800D890143615361636173612AE0EEF0BF084
:1016180010EF0BF011EF0BF01480D8900F36103646
:10162800113612361806D8A0190616AE1EEF0BF0A2
:1016380020EF0BF004EF0BF00E6A12AE26EF0BF062
:1016480028EF0BF04CEF0BF0FF0E0F14096EFF0E96
:1016580010140A6EFF0E11140B6E7F0E12140C6E0E
:1016680009500A100B100C10D8B43DEF0BF03FEFE7
:101678000BF043EF0BF0010E0E6E4CEF0BF014A0C5
:1016880048EF0BF04AEF0BF04CEF0BF03FEF0BF08D
:101698000E50D8B452EF0BF054EF0BF078EF0BF07C
:1016A800010E1426000E15221622172217A05FEF2E
:1016B8000BF061EF0BF078EF0BF014C009F015C0D8
:1016C8000AF016C00BF017C00CF00C340C320B32B9
:1016D8000A32093209C014F00AC015F00BC016F01E
:1016E8000CC017F0184A192A19BE83EF0BF01950CD
:1016F80008E11828D8A083EF0BF085EF0BF08FEFE7
:101708000BF0000E146E000E156E800E166E7F0E16
:10171800176EBCEF0BF019BE9CEF0BF0195006E1E9
:101728001804D8B09AEF0BF09CEF0BF0A7EF0BF072
:10173800000E146E000E156E000E166E000E176E5B
:101748000D6ABCEF0BF018C013F0FF0E1416FF0E55
:1017580015167F0E1616000E171613A0B6EF0BF00F
:10176800B8EF0BF0B9EF0BF0168ED8901330176E58
:101778000D50171214C001F015C002F016C003F086
:1017880017C004F01200000E2D6E000E2C6E000E15
:101798002F6E000E2E6E000E216E000E206EB8C049
:1017A80018F0070E1816D8A4DCEF0BF0DEEF0BF0DC
:1017B800E6EF0CF0B8C001F0026A000E046E080EE5
:1017C800036E8CEC1BF00001B751186E196A0150BA
:1017D8001802F3CF1AF0F4CF1BF01902F3501B26AE
:1017E80002501802F3501B26B95117C01CF01D6A8D
:1017F8001C5E000E1D5A1A501C02F3CF1EF0F4CFC7
:101808001FF01D02F3501F261B501C02F3501F2609
:10181800040E1E24266E000E1F20276E000E2D6E4D
:10182800000E2C6ED0EF0CF0000E2F6E000E2E6EF8
:10183800BFEF0CF0B7512C02F3CF18F0F4CF19F02A
:101848002D02F35019261850B5251A6E1950B621D5
:101858001B6E26501A2627501B222E501A262F5050
:101868001B221AC0F6FF1BC0F7FF0800F550206EB8
:10187800216A306A30C018F0010E196E000E1A6E17
:10188800182A4AEF0CF0D89019361A36182E47EF56
:101898000CF02050191621501A1619501A10D8B4E5
:1018A80058EF0CF05AEF0CF0A9EF0CF00001BB5107
:1018B800D8A461EF0CF063EF0CF086EF0CF02E501B
:1018C8001324096E2F5014200A6E30502CC018F0C3
:1018D8002DC019F0D89018361936D8901836193600
:1018E800D890183619361826000E192215501824C3
:1018F8000B6E165019200C6E010E0D6ED2EC14F002
:10190800B4EF0CF02E501324096E2F5014200A6ED9
:1019180030502CC018F02DC019F0D8901836193650
:10192800D89018361936D890183619361826000E59
:101938001922155018240B6E165019200C6E000E23
:101948000D6ED2EC14F0B4EF0CF00001BB51D8A42A
:10195800B0EF0CF0B2EF0CF063EF0CF086EF0CF088
:10196800302A070E3064BBEF0CF0BDEF0CF03EEFF1
:101978000CF02E4A2F2A0001B751186E196A185018
:101988002E5C19502F58D8A0CCEF0CF0CEEF0CF0ED
:101998001EEF0CF02C4A2D2AB8C001F0026A000E86
:1019A800046E080E036E8CEC1BF001502C5C025088
:1019B8002D58D8A0E2EF0CF0E4EF0CF018EF0CF083
:1019C800C8EF0DF00001B751B803F3CF01F0F4CF21
:1019D80002F0000E046E080E036E8CEC1BF0000182
:1019E800B95117C018F0196A185E000E195A01503B
:1019F8001802F3CF1AF0F4CF1BF01902F3501B268C
:101A080002501802F3501B26040E1A24266E000EEC
:101A18001B20276E2650B525186E2750B621196E43
:101A280018C0F6FF19C0F7FF0800F550226E236AA8
:101A3800000E256E070E246E000E296E000E286E0D
:101A4800B6EF0DF0000E2B6E000E2A6EA1EF0DF012
:101A580024C018F0010E196E000E1A6E182A38EFFD
:101A68000DF0D89019361A36182E35EF0DF0225091
:101A7800191623501A1619501A10D8B446EF0DF03B
:101A880048EF0DF075EF0DF00001BB51D8A44FEFF2
:101A98000DF051EF0DF063EF0DF028501324096E8F
:101AA800295014200A6E2A5015240B6E2B5016202C
:101AB8000C6E010E0D6ED2EC14F080EF0DF0285074
:101AC8001324096E295014200A6E2A5015240B6E0F
:101AD8002B5016200C6E000E0D6ED2EC14F080EF19
:101AE8000DF00001BB51D8A47CEF0DF07EEF0DF096
:101AF80051EF0DF063EF0DF02406D8A0250625BEA2
:101B08008AEF0DF088EF0DF09FEF0DF0000E256EB7
:101B1800070E246E264A272A26500001B525186E7E
:101B28002750B621196E18C0F6FF19C0F7FF080034
:101B3800F550226E236A2A4A2B2A0001B851186EE2
:101B4800196A18502A5C2B50800A1A6E1950800A9C
:101B58001A58D8A0B2EF0DF0B4EF0DF02CEF0DF03D
:101B6800284A292AB751186E196A1850285C295032
:101B7800800A1A6E1950800A1A58D8A0C6EF0DF0BC
:101B8800C8EF0DF026EF0DF0120000000000000075
:101B9800000000000000000000000000000000003D
:101BA800000000000000000000000000000000002D
:101BB800000000000000000000000000000000001D
:101BC800000000000000000000000000000000000D
:101BD80000000000000000000000000000000000FD
:101BE80000000000000000000000000000000000ED
:101BF80000000000000000000000000000000000DD
:101C080000000000000000000000000000000000CC
:101C180000000000FCFCFC0C0C0C0C0C0C0000C0C0
:101C2800C0C080C0C0C0C0800080C0C0C0C080002C
:101C3800000000FEFEFE80C0C0C0C0C080000000E2
:101C4800008080C0C0C0C0C080000000008080C08C
:101C5800C0C0C080FEFEFE0000008080C0C0C0C0C2
:101C680080FEFEFE0000008080C0C0C0C0C08000B2
:101C78000000008080C0C0C0C080FEFEFE000000E2
:101C8800000000000000000000000000000000004C
:101C980000000000FFFFFF8383838383800000FF31
:101CA800FFFF01000001FFFFFF01000001FFFFFF30
:101CB800000000FFFFFFC1808080C1FFFF3E0000E1
:101CC8003EFFFFCD8C8C8C8FCFCF00003EFFFFC135
:101CD800808080C1FFFFFF00003EFFFFC180808041
:101CE800C1FFFFFF00003EFFFFCD8C8C8C8FCFCF54
:101CF80000003EFFFFC1808080C1FFFFFF000000A1
:101D080000000000000000000000000000000000CB
:101D180000000000010101010101010101000001B1
:101D280001010000000001010100000000010101A3
:101D38000000000101010001010101000000000094
:101D48000000000101010101010000000000010183
:101D58000101010001010100000000010101010170
:101D68000001010100000000000101010101010062
:101D78000000000001010101010001010100000053
:101D8800000000000000000000000000000000004B
:101D9800000000FCFCFC000000000000008080C087
:101DA800C0C0C0C080000000FEFEFE80C0C0C0C031
:101DB800C080000000008080C0C0C0C0C08080001B
:101DC8000000C0C0C080C0C0C00000008080C0C08B
:101DD800C0C0C0800000C0C0F8F8F8C0C0C0000093
:101DE8008080C0C0C0C0C08080000000C0C0C0806B
:101DF800C0C0C040C0C0800000000080C0C040001B
:101E080000000000000000000000000000000000CA
:101E1800000000FFFFFF80808080800070F9FD9C3B
:101E28008C8CCCFFFFFF0000FFFFFFC1808080C1CA
:101E3800FFFF3E00003EFFFFC1808080C1FFFF3EE4
:101E48000000FFFFFF03010101000070F9FD9C8CF9
:101E58008CCCFFFFFF000000FFFFFF808080003E6A
:101E6800FFFFC1808080C1FFFF3E0000FFFFFF032E
:101E780001010100030F3FFEF8C0FCFF1F03000033
:101E8800000000000000000000000000000000004A
:101E98000000000101010101010101000000010130
:101EA800010100010101000001010100010101011E
:101EB8000000000000000000010101010100000015
:101EC8000000010101000000000000000001010104
:101ED80001000101010000000001010101010000F1
:101EE80000000101010101000000000001010100E2
:101EF800000000000000181D1F0F03000000000074
:101F080000000000000000000000000000000000C9
:101F180000000000000000000000000000000000B9
:101F280000000000000000000000000000000000A9
:101F38000000000000000000000000000000000099
:101F48000000000000000000000000000000000089
:101F58000000000000000000000000000000000079
:101F68000000000000000000000000000000000069
:101F78000000000000000000000000000000000059
:101F8800000000000000000000002050800B2D6EB3
:101F980020502024346E1FAED4EF0FF0D6EF0FF090
:101FA800D7EF0FF034803450D8B4DDEF0FF0DFEF07
:101FB8000FF0F3EF0FF03428D8A4E5EF0FF0E7EFB8
:101FC8000FF0EFEF0FF0000E1D6E000E1E6E000EEC
:101FD8001F6E000E206E1F8E206AFBEF0FF0000EA2
:101FE8001D6E000E1E6E000E1F6E000E206E245019
:101FF800800B2D1A24502424356E23AE06EF10F0E2
:1020080008EF10F009EF10F035803550D8B40FEF15
:1020180010F011EF10F025EF10F03528D8A417EFC5
:1020280010F019EF10F021EF10F0000E216E000EE5
:10203800226E000E236E000E246E238E246A2DEF6E
:1020480010F0000E216E000E226E000E236E000EA0
:10205800246E2150221023102410D8A436EF10F03B
:1020680038EF10F050EF10F0000E1D6E000E1E6ECF
:10207800000E1F6E000E206E800E1F127F0E2012A3
:102088002D5020121DC01DF01EC01EF01FC01FF0D5
:1020980020C020F090EF11F03450D8A456EF10F083
:1020A80058EF10F062EF10F0000E1D6E000E1E6E5D
:1020B800000E1F6E000E206E90EF11F0355034C0E8
:1020C80025F0266A255E000E265A7F0E25242E6EE0
:1020D800000E26202F6E1DC029F01EC02AF01FC03A
:1020E8002BF020C02CF0000E1D6E000E1E6E000E90
:1020F8001F6E000E206E000E306E000E316E000E48
:10210800326E000E336E356AC2EF10F03550D8B417
:1021180090EF10F092EF10F0A9EF10F0D890293658
:102128002A362B362C36D8901D361E361F362036CA
:1021380033AEA1EF10F0A3EF10F0A4EF10F01D8064
:10214800D89030363136323633362150295C225019
:102158002A5823502B5824502C58D8A0B6EF10F0EA
:10216800B8EF10F0C1EF10F0338C2150295E2250E7
:102178002A5A23502B5A24502C5A352A190E3564C2
:10218800C8EF10F0CAEF10F08AEF10F029502A10AB
:102198002B102C10D8B4D3EF10F0D5EF10F0EDEFD2
:1021A80010F03080EDEF10F0D8901D361E361F3637
:1021B800203633AEE2EF10F0E4EF10F0E5EF10F068
:1021C8001D80D89030363136323633362E06D8A0B8
:1021D8002F061FAEF2EF10F0F4EF10F0D8EF10F06A
:1021E800356A33AEFAEF10F0FCEF10F020EF11F083
:1021F800FF0E3014256EFF0E3114266EFF0E3214BA
:10220800276E7F0E3314286E2550261027102810AD
:10221800D8B411EF11F013EF11F017EF11F0010E10
:10222800356E20EF11F01DA01CEF11F01EEF11F01C
:1022380020EF11F013EF11F03550D8B426EF11F05C
:1022480028EF11F04CEF11F0010E1D26000E1E2292
:102258001F22202220A033EF11F035EF11F04CEFB0
:1022680011F01DC025F01EC026F01FC027F020C0A9
:1022780028F02834283227322632253225C01DF08E
:1022880026C01EF027C01FF028C020F02E4A2F2A93
:102298002FBE57EF11F02F5008E12E28D8A057EF86
:1022A80011F059EF11F064EF11F0000E2F6E2E6847
:1022B800000E1D6E000E1E6E000E1F6E000E206EAC
:1022C8002FBE71EF11F02F5006E12E04D8B06FEF3A
:1022D80011F071EF11F07EEF11F0000E2F6E000E6D
:1022E8002E6E000E1D6E000E1E6E000E1F6E000E6E
:1022F800206E2D6A2EC034F034A085EF11F087EFE0
:1023080011F08AEF11F01F8E8BEF11F01F9ED890FD
:102318003430206E44EF10F012001350175C016E39
:1023280014501858026ECCEC21F001C032F002C0F3
:1023380033F01550195C016E16501A58026ECCEC29
:1023480021F001C034F002C035F013C024F014C0ED
:1023580025F015C026F016C027F01350175C18504A
:10236800800A1C6E1450800A1C58D8B0BEEF11F0B9
:10237800C0EF11F0C4EF11F02E682F68C8EF11F00C
:10238800000E2F6E010E2E6E1550195C1A50800A21
:102398001C6E1650800A1C58D8B0D5EF11F0D7EF34
:1023A80011F0DBEF11F030683168DFEF11F0000E4B
:1023B800316E010E306E3450325C3350800A1C6E20
:1023C8003550800A1C58D8A0ECEF11F0EEEF11F050
:1023D8006FEF12F034C01CF035C01DF0D8901C36D9
:1023E8001D3632501C5E33501D5A1CC02AF01DC0C9
:1023F8002BF0000E2BBEFF0E2C6E2D6E000E296EDC
:10240800000E286E5EEF12F024C009F025C00AF015
:1024180026C00BF027C00CF01BC00DF0D2EC14F056
:102428002DBE1BEF12F019EF12F033EF12F0D89017
:1024380034341C6E35341D6E1E6A1DBE1E061E50B9
:102448001F6E1C502A261D502B221E502C221F5056
:102458002D222E5024262F5025225CEF12F032C058
:102468001CF033C01DF0D8901C361D3634C01EF049
:1024780035C01FF0D8901E361F361C501E5C206ECB
:102488001D501F58216E226A21BE22062250236E3B
:1024980020502A2621502B2222502C2223502D2234
:1024A8002E5024262F502522305026263150272200
:1024B800284A292A2850325C3350800A1C6E295039
:1024C800800A1C58D8B06BEF12F06DEF12F008EFCD
:1024D80012F0EEEF12F032C01CF033C01DF0D890AD
:1024E8001C361D3634501C5E35501D5A1CC02AF04F
:1024F8001DC02BF0000E2BBEFF0E2C6E2D6E000E95
:10250800296E000E286EDFEF12F024C009F025C0F6
:102518000AF026C00BF027C00CF01BC00DF0D2EC5F
:1025280014F02DBE9CEF12F09AEF12F0B4EF12F0F7
:10253800D89032341C6E33341D6E1E6A1DBE1E06C2
:102548001E501F6E1C502A261D502B221E502C2256
:102558001F502D223050262631502722DDEF12F051
:1025680034C01CF035C01DF0D8901C361D3632C062
:102578001EF033C01FF0D8901E361F361C501E5C4C
:10258800206E1D501F58216E226A21BE220622503D
:10259800236E20502A2621502B2222502C222350F1
:1025A8002D222E5024262F502522305026263150F9
:1025B8002722284A292A2850345C3550800A1C6E64
:1025C8002950800A1C58D8B0ECEF12F0EEEF12F048
:1025D80089EF12F01200BCC046F0BDC047F0BEC083
:1025E80048F0BFC049F036C046F037C047F038C0A1
:1025F80048F039C049F0810E3A6EFF0E3B6E46C076
:102608003CF047C03DF048C03EF049C03FF0180ECE
:1026180013EF13F0D8903F323E323D323C32E82E71
:102628000EEF13F03C503A24446E000E3B20456EEA
:1026380045BE28EF13F0455009E1170E445CD8A0B9
:1026480028EF13F02AEF13F034EF13F036C036F00A
:1026580037C037F038C038F039C039F0F7EF13F029
:1026680045BE39EF13F03BEF13F0ABEF13F044C066
:102678003AF0FF0E3B6EFF0E3C6E7F0E3D6E000E75
:102688003E6E3A664AEF13F052EF13F03E343E3294
:102698003D323C323B323A2E45EF13F03BC040F01E
:1026A8003CC041F03DC042F03EC043F040504614AB
:1026B8003A6E415047143B6E425048143C6E4350AA
:1026C80049143D6E3A503B103C103D10D8A46FEFB2
:1026D80013F071EF13F073EF13F02AEF13F046C005
:1026E8003AF047C03BF048C03CF049C03DF0200EEE
:1026F80083EF13F0D8903D323C323B323A32E82E29
:102708007EEF13F03A503B103C103D10D8B48FEFD9
:1027180013F091EF13F099EF13F040504626415013
:1027280047224250482243504922401C3A6E411CDD
:102738003B6E421C3C6E431C3D6E3A5046163B5065
:1027480047163C5048163D504916EFEF13F046C067
:102758003AF047C03BF048C03CF049C03DF0200E7D
:10276800BBEF13F0D8903D323C323B323A32E82E80
:10277800B6EF13F03A503B103C103D10D8A4C7EF09
:1027880013F0C9EF13F0D3EF13F0000E466E000EEE
:10279800476E000E486E000E496EEFEF13F0D890AA
:1027A80046343A6E47343B6E48343C6E49343D6E8D
:1027B8003A503B103C103D10D8B4E5EF13F0E7EF6A
:1027C80013F0EFEF13F0000E466E000E476E800E0A
:1027D800486EBF0E496E46C036F047C037F048C055
:1027E80038F049C039F01200176E1750D8B4FFEF0F
:1027F80013F001EF14F023EF14F012BE08EF14F0F9
:1028080006EF14F023EF14F00FC013F010C014F00B
:1028180011C015F012C016F0131E141E151E161E38
:10282800132A000E14221522162213C019F014C000
:102838001AF015C01BF016C01CF02BEF14F00FC0D7
:1028480019F010C01AF011C01BF012C01CF00F5084
:10285800101011101210D8A434EF14F036EF14F041
:1028680040EF14F0000E0F6E000E106E000E116E89
:10287800000E126ED1EF14F0960E186E4AEF14F097
:10288800182AD8901C321B321A321932000E191429
:10289800136E000E1A14146E000E1B14156EFE0E25
:1028A8001C14166E1350141015101610D8A45FEFD0
:1028B80014F061EF14F044EF14F06FEF14F0182ADD
:1028C800010E1926000E1A221B221C22D8901C3237
:1028D8001B321A321932000E1914136E000E1A1414
:1028E800146E000E1B14156EFF0E1C14166E13507A
:1028F800141015101610D8A484EF14F086EF14F0F5
:1029080063EF14F08EEF14F01806D89019361A36C3
:102918001B361C361BBE93EF14F095EF14F09DEF99
:1029280014F0020E18609BEF14F09DEF14F088EF7E
:1029380014F018B0A2EF14F0A4EF14F0A5EF14F0FF
:102948001B9ED890183218C013F0146A156A166ABC
:1029580013C016F0156A146A136A1350191214502A
:102968001A1215501B1216501C121750D8B4BFEF6C
:1029780014F0C1EF14F0C9EF14F012BEC8EF14F050
:10298800C6EF14F0C9EF14F01C8E19C00FF01AC06E
:1029980010F01BC011F01CC012F012000ABED7EFD5
:1029A80014F0D9EF14F0A7EF15F01FEC23F00E6E1A
:1029B8000F6A0E50095C0A50800A106E0F50800A88
:1029C8001058D8B0EAEF14F0ECEF14F0A7EF15F0B8
:1029D8000CBEF1EF14F0F3EF14F0A7EF15F021ECB3
:1029E80023F00E6E0F6A0E500B5C0C50800A106EAE
:1029F8000F50800A1058D8A004EF15F006EF15F014
:102A080098EF15F0A7EF15F00BC00EF0070E0E1695
:102A1800010E0F6E0E2A13EF15F0D8900F360E2EFA
:102A280011EF15F00BC001F00CC002F0000E046E9F
:102A3800080E036E8CEC1BF0070ED8900136023698
:102A4800E82E21EF15F09D0E0124106E010E0220D4
:102A5800116E09501024D96E0A501120DA6E0F50E9
:102A6800DF12A7EF15F00BC00EF0070E0E16010EC1
:102A78000F6E0E2A42EF15F0D8900F360E2E40EF4B
:102A880015F00F50FF0A106E0BC001F00CC002F0D9
:102A9800000E046E080E036E8CEC1BF0070ED89027
:102AA80001360236E82E53EF15F09D0E0124116E03
:102AB800010E0220126E09501124D96E0A501220FC
:102AC800DA6E1050DF16A7EF15F00BC00EF0070EE8
:102AD8000E16010E0F6E0E2A74EF15F0D8900F36F1
:102AE8000E2E72EF15F00BC001F00CC002F0000EB4
:102AF800046E080E036E8CEC1BF0070ED89001369E
:102B08000236E82E82EF15F09D0E0124106E010E9C
:102B18000220116E09501024D96E0A501120DA6E65
:102B28000F50DF1AA7EF15F00D50000AD8B437EF91
:102B380015F0010AD8B408EF15F0030AD8B469EF04
:102B480015F0A7EF15F012000AC012F00BC013F031
:102B580012501310D8A4B3EF15F0B5EF15F0B9EF74
:102B680015F0EC0E126E7F0E136E000E156E000E31
:102B7800146EC1EF15F0144A152A145012240C6E65
:102B8800155013200D6E0CC0F6FF0DC0F7FFF86A44
:102B9800070EF76403D00800F55005D0F6CFE1FF23
:102BA800F7CFE2FFE7500009D8A4DDEF15F0DFEF1B
:102BB80015F0BFEF15F00001C7BFE5EF15F0E7EF1F
:102BC80015F0FAEF15F01450C65DC751800A0C6E67
:102BD8001550800A0C58D8B0F4EF15F0F6EF15F040
:102BE800FAEF15F0C6C014F0C7C015F014C00EF007
:102BF80015C00FF0C4C010F0C5C011F0D0B107EF78
:102C080016F009EF16F040EF16F015EF16F0000E6B
:102C1800026E200E016E09C003F0A2EC1CF0144AEB
:102C2800152A1050145C1550800A0C6E1150800A39
:102C38000C58D8A022EF16F024EF16F00BEF16F080
:102C480040EF16F012C0F6FF13C0F7FFF86A070E40
:102C5800F76403D00800F55005D0F6CFE1FFF7CFB1
:102C6800E2FFE7500C6E0C50016E026A09C003F0D7
:102C7800A2EC1CF0124A132A0E06D8A00F060E2842
:102C880006E10F28D8A44BEF16F04DEF16F026EF0B
:102C980016F00001D0A153EF16F055EF16F070EFC3
:102CA80016F061EF16F0000E026E200E016E09C0DC
:102CB80003F0A2EC1CF0144A152A1050145C1550AD
:102CC800800A0C6E1150800A0C58D8A06EEF16F0CE
:102CD80070EF16F057EF16F012000D0E0001F11903
:102CE800D8A479EF16F07BEF16F0BAEF16F01F0EA6
:102CF800F019D8A482EF16F084EF16F0BAEF16F0A8
:102D0800190EEF658AEF16F08CEF16F0BAEF16F091
:102D18001E0EEF6192EF16F094EF16F0BAEF16F070
:102D2800D251D8A49AEF16F09CEF16F0BAEF16F02D
:102D3800CA05CB11D8A4A3EF16F0A5EF16F0BAEF89
:102D480016F0000ECB6F010ECA6FBC0E50EC22F0CD
:102D5800B70E0B6EA10E0A6EC40EE82EFED70A2E11
:102D6800FCD70B2EFAD7640E50EC22F00D0E0001A2
:102D7800F119D8A4C2EF16F0C4EF16F0F8EF16F068
:102D88001E0EF019D8A4CBEF16F0CDEF16F0F8EF21
:102D980016F0190EEF65D3EF16F0D5EF16F0F8EF31
:102DA80016F01E0EEF61DBEF16F0DDEF16F0F8EF10
:102DB80016F0D151D8A4E3EF16F0E5EF16F0F8EFCE
:102DC80016F0010ED16FBC0E50EC22F0B70E0B6E50
:102DD800A10E0A6EC40EE82EFED70A2EFCD70B2EC3
:102DE800FAD7640E50EC22F00D0E0001F119D8A4A8
:102DF80000EF17F002EF17F013EF17F01F0EF0199E
:102E0800D8A409EF17F00BEF17F013EF17F0230E04
:102E1800EF6511EF17F013EF17F014EF17F0D26BFF
:102E28000D0EF119D8A41BEF17F01DEF17F02EEFB8
:102E380017F01E0EF019D8A424EF17F026EF17F09C
:102E48002EEF17F0230EEF652CEF17F02EEF17F08B
:102E58002FEF17F0D16B1200EB0E366EE70E376EC0
:102E6800E0EC17F036C0C8F037C0C9F00001C8055B
:102E7800C911D8A442EF17F044EF17F0DFEF17F0AD
:102E8800D30E986FD10E996F7F0E9A6FE7C09BF0A3
:102E9800E8C09CF0E9C09DF0EAC09EF05AEC21F031
:102EA800590E016E7D0E026E20EC1FF0000E326E80
:102EB800050E316E000E346E1A0E336ED30E356E5B
:102EC800366AA0EC1AF02DEC1EF0D30E0001986FB4
:102ED800DF0E996F7F0E9A6FEBC09BF0ECC09CF0F1
:102EE800EDC09DF0EEC09EF05AEC21F0590E016E37
:102EF8007D0E026E20EC1FF0000E326E050E316E54
:102F0800000E346E2F0E336ED30E356E366AA0EC7B
:102F18001AF02DEC1EF0000E1A6E000E1B6EE80E55
:102F28001C6E410E1D6EEBC01EF0ECC01FF0EDC014
:102F380020F0EEC021F09FEC19F0D8B0A6EF17F002
:102F4800A8EF17F0B6EF17F0ADEC22F01F0E5B6E8E
:102F5800710E5A6E1E0EE82EFED75A2EFCD75B2E27
:102F6800FAD700D0EBC01AF0ECC01BF0EDC01CF093
:102F7800EEC01DF0000E1E6E000E1F6EE00E206EDD
:102F8800410E216E9FEC19F0D8B0CDEF17F0CFEFBE
:102F980017F0DFEF17F0BAEC22F0C7EC22F01F0EA3
:102FA8005B6E710E5A6E1E0EE82EFED75A2EFCD797
:102FB8005B2EFAD700D0120029EC22F013EC22F095
:102FC800E5EC1DF001C03CF002C03DF0E5EC1DF061
:102FD80001C03EF002C03FF0E5EC1DF001C040F03A
:102FE80002C041F0E5EC1DF001C042F002C043F020
:102FF800E5EC1DF001C044F002C045F03EC009F008
:103008003FC00AF03CC007F03DC008F055EC1FF087
:1030180007C00FF008C010F0116A126A000EF8EC31
:1030280013F00FC01DF010C01EF011C01FF012C029
:1030380020F0000E216E000E226E200E236E410E2F
:10304800246EC9EC0FF03750D96EDA6A1DC0DEFF66
:103058001EC0DEFF1FC0DEFF20C0DEFF42C009F039
:1030680043C00AF040C007F041C008F055EC1FF01B
:1030780007C00FF008C010F0116A126A000EF8ECD1
:1030880013F00FC01DF010C01EF011C01FF012C0C9
:1030980020F0000E216E000E226E200E236E410ECF
:1030A800246EC9EC0FF03650D96EDA6A1DC0DEFF07
:1030B8001EC0DEFF1FC0DEFF20C0DEFF40503E24E2
:1030C800386E41503F20396E4250382643503922DD
:1030D8003C5038243A6E3D5039203B6E3A504418E3
:1030E80007E13B504518D8A47CEF18F07EEF18F0A4
:1030F80084EF18F0000E376E010E366E88EF18F068
:10310800000E376E000E366E12000001C7BF8FEF3B
:1031180018F091EF18F092EF18F0D093C7BF99EF1D
:1031280018F097EF18F09FEF18F0000E1B6E010EC5
:103138001A6EA3EF18F0C6C01AF0C7C01BF0C4C0BF
:103148001CF0C5C01DF0000E1F6E4F0E1E6E010153
:103158004F6BD9EF18F01E06D8A01F06000E1E24CC
:10316800D96E010E1F20DA6E18C001F019C002F0E6
:10317800000E046E0A0E036EBAEC1FF00150300FF9
:10318800DF6E1A06D8A01B061C06D8A01D0618C09C
:1031980001F019C002F0000E046E0A0E036EB1ECC5
:1031A8001EF001C018F002C019F01E501F10D8B44C
:1031B800E0EF18F0E2EF18F00DEF19F018501910C1
:1031C800D8A4E9EF18F0EBEF18F0AFEF18F01BBE3A
:1031D800F8EF18F01B5006E11A04D8B0F6EF18F013
:1031E800F8EF18F0AFEF18F01DBE03EF19F01D50FF
:1031F80008E11C04D8A003EF19F005EF19F00DEF52
:1032080019F00001D0B30BEF19F00DEF19F0AFEF83
:1032180018F017C00FF0000E1E24106E010E1F20AC
:10322800116E1CC012F01DC013F09AEC1DF01200B4
:10323800033404340A6E0A50D8A425EF19F027EF96
:1032480019F031EF19F0000E016E000E026E000E3B
:10325800036E000E046E9EEF19F001C005F002C067
:1032680006F003C007F004C008F0200E41EF19F083
:10327800D8900832073206320532E82E3CEF19F0B2
:103288000550096E038EFF0E0116FF0E0216FF0E83
:103298000316000E0416960E0A5E0ABE58EF19F0C1
:1032A80056EF19F06EEF19F00A50800A970FD8B050
:1032B80060EF19F062EF19F064EF19F027EF19F0D9
:1032C800D89004320332023201320A3E64EF19F018
:1032D80086EF19F01F0E0A6474EF19F076EF19F0F3
:1032E8007EEF19F027EF19F0D89001360236033631
:1032F80004360A060A50D8A484EF19F086EF19F0AC
:1033080078EF19F00950D8B48CEF19F08EEF19F056
:1033180096EF19F0041E031E021E016C000E022215
:103328000322042201C001F002C002F003C003F02E
:1033380004C004F01200000E1A14226E000E1B14B2
:10334800236E800E1C14246E7F0E1D14256E2250D1
:10335800231024102510D8A4B4EF19F0B6EF19F0F3
:10336800BEEF19F0000E1A6E000E1B6E000E1C6EDA
:10337800000E1D6E000E1E14226E000E1F14236E0A
:10338800800E2014246E7F0E2114256E22502310E7
:1033980024102510D8A4D3EF19F0D5EF19F0DDEFDC
:1033A80019F0000E1E6E000E1F6E000E206E000E2D
:1033B800216E1DAEE2EF19F0E4EF19F0EDEF19F010
:1033C8001A6C1B1ED8B01B2A1C1ED8B01C2A800ED3
:1033D8001D5621AEF2EF19F0F4EF19F0FDEF19F0D8
:1033E8001E6C1F1ED8B01F2A201ED8B0202A800E9F
:1033F8002156000E1A1A000E1B1A000E1C1A800EF7
:103408001D1A000E1E1A000E1F1A000E201A800E1A
:10341800211A1E501A5C1F501B5820501C5821504E
:103428001D58D8B01AEF1AF01CEF1AF01FEF1AF057
:10343800D89020EF1AF0D8801200C0C00BF0C1C09D
:103448000CF0C2C00DF0C3C00EF001C00BF002C0FA
:103458000CF003C00DF004C00EF00BC005F00CC05A
:1034680006F00DC007F00EC008F0180E41EF1AF074
:10347800D8900832073206320532E82E3CEF1AF0AF
:103488000550096E0A6A09500A10D8A44EEF1AF0BE
:1034980050EF1AF070EF1AF0D8900B34056E0C3418
:1034A800066E0D34076E0E34086E055006100710B0
:1034B8000810D8A462EF1AF064EF1AF06AEF1AF055
:1034C800000E026E020E016E9FEF1AF0000E026EE1
:1034D800030E016E9FEF1AF009280A10D8A477EF9F
:1034E8001AF079EF1AF09BEF1AF00BC005F00CC038
:1034F80006F00DC007F00EC008F0090ED89005368A
:10350800063607360836E82E82EF1AF00550061000
:1035180007100810D8B493EF1AF096EF1AF0010EBE
:1035280097EF1AF0000E016E026A9FEF1AF0000E74
:10353800026E040E016E120035C001F036C002F0B2
:1035480067EC20F001503A6EFE0E31183210D8A404
:10355800B0EF1AF0B2EF1AF0C1EF1AF03A500001CA
:10356800B703F3CF37F0F4CF38F037508008316E17
:103578003850D8A0E82A0008326E31283210D8A472
:10358800C8EF1AF0CAEF1AF0E3EF1AF03A50000148
:10359800B703F3CF37F0F4CF38F037508008016E17
:1035A8003850D8A0E82A0008026E000E046E020EF9
:1035B800036E8CEC1BF001C031F002C032F0396AA6
:1035C8000DEF1BF039500001B703F3CF37F0F4CFFC
:1035D80038F031503724136E32503820146E33C00F
:1035E80015F034C016F035C0F6FF36C0F7FFF86A9C
:1035F800070EF76403D00800F55005D0F6CFE1FFB9
:10360800F7CFE2FFE750176EC7EC0BF0354A362AC2
:10361800392A3A50395CD8A014EF1BF016EF1BF08A
:10362800E6EF1AF01200F50E046EF40E056EF30EB6
:10363800066EF20E076E3FEC20F0F10E046EF00EEF
:10364800056EEF0E066E3BEC21F0D30E0001986F6D
:10365800AF0E996F7F0E9A6FF5C09BF09C6BF4C00C
:103668009DF09E6BF3C09FF0A06B5AEC21F0590EB1
:10367800016E7D0E026E20EC1FF0000E326E010E00
:10368800316E000E346E010E336ED30E356E366A0F
:10369800A0EC1AF02DEC1EF0D30E0001986FC00EAE
:1036A800996F7F0E9A6FF1C09BF09C6BF0C09DF0F4
:1036B8009E6BEFC09FF0A06B5AEC21F0590E016E83
:1036C8007D0E026E20EC1FF0000E326E410E316E40
:1036D800000E346E010E336ED30E356E366AA0ECD2
:1036E8001AF0000E146E010E136E000E166E0C0EFC
:1036F800156E000E186E7F0E176E000E1A6E0C0EE9
:10370800196E010E1B6E91EC11F02DEC1EF01200DB
:10371800066A04BE94EF1BF092EF1BF09AEF1BF0C1
:10372800036C041ED8B0042A010E066E02BEA1EF77
:103738001BF09FEF1BF0A7EF1BF0016C021ED8B027
:10374800022A010E061A000E086E000E076E0350BC
:103758000410D8B4B2EF1BF0B4EF1BF0DCEF1BF091
:10376800010E056EBCEF1BF0D89003360436052A0F
:1037780004AEC1EF1BF0C3EF1BF0B8EF1BF0D890FD
:10378800073608360350015C04500258D8A0CFEF22
:103798001BF0D1EF1BF0D6EF1BF00350015E045075
:1037A800025A0780D89004320332052EC3EF1BF06B
:1037B8000650D8B4E2EF1BF0E4EF1BF0E8EF1BF083
:1037C800076C081ED8B0082A07C001F008C002F02C
:1037D8001200070E0A6E170E096E6A0EE82EFED743
:1037E800092EFCD70A2EFAD700D0AE0E91EC22F0A3
:1037F800D50E91EC22F0800E91EC22F0A80E91ECFF
:1038080022F03F0E91EC22F0D30E91EC22F0000E44
:1038180091EC22F0400E91EC22F08D0E91EC22F00A
:10382800140E91EC22F0200E91EC22F0000E91EC97
:1038380022F0A10E91EC22F0C80E91EC22F0DA0EE3
:1038480091EC22F0120E91EC22F0810E91EC22F014
:10385800CF0E91EC22F0D90E91EC22F0F10E91EC02
:1038680022F0DB0E91EC22F0400E91EC22F0A40E37
:1038780091EC22F0A60E91EC22F02E0E91EC22F0A3
:10388800AF0E91EC22F082EC22F02DEC1EF012002B
:10389800000E076E000E066E0150D96EDA6ADECF92
:1038A800F6FFDDCFF7FF0800F5502A0AD8A45FEF2E
:1038B8001CF061EF1CF08AEF1CF00150D96EDA6A37
:1038C800DE2A000EDD220250D96EDA6A020EDF26E9
:1038D800DF5CD96EDA6ADECF06F0DECF07F09DEF47
:1038E8001CF00A0E0602F3CF03F0F4CF04F007022F
:1038F800F350042605500324066E000E0420076EBC
:103908000150D96EDA6ADE2A000EDD220150D96E26
:10391800DA6ADECFF6FFDDCFF7FF0800F550D00FEB
:10392800056E090E05649BEF1CF09DEF1CF075EF0A
:103938001CF006C001F007C002F012000350D8B412
:10394800A8EF1CF0AAEF1CF0B2EF1CF00350D8A4AB
:10395800B0EF1CF0B2EF1CF0B7EF1CF0015023ECF5
:1039680023F0F6EF1CF00350D96EDA6A090ED92657
:10397800DE50DE10D8B4C3EF1CF0C5EF1CF0DEEF4C
:103988001CF00350D96EDA6A090ED9260350E16E8D
:10399800E26A020EE126DE50E65CE650800A086E16
:1039A800DE50800A0858D8B0DCEF1CF0DEEF1CF0BF
:1039B800F6EF1CF00350D96EDA6A020ED926DF50F2
:1039C800046E0350D96EDA6ADF500424D96EDA6ABD
:1039D80001C0DFFF0350D96EDA6A020ED926DE2A4B
:1039E800000EDD221200000E0114096E000E0214F2
:1039F8000A6E800E03140B6E7F0E04140C6E0950B1
:103A08000A100B100C10D8A40CEF1DF00EEF1DF0CF
:103A180016EF1DF0000E016E000E026E000E036E12
:103A2800000E046E000E0514096E000E06140A6ED0
:103A3800800E07140B6E7F0E08140C6E09500A10C6
:103A48000B100C10D8A42BEF1DF02DEF1DF035EF47
:103A58001DF0000E056E000E066E000E076E000EBD
:103A6800086E055001180FE1065002180CE10750C6
:103A7800031809E108500418D8B445EF1DF047EFC2
:103A88001DF04AEF1DF0D8904BEF1DF0D8801200C2
:103A980006009EA052EF1DF054EF1DF067EF1DF0D9
:103AA8000001CC4BCD2B9E90CD5109E1650ECC5D2C
:103AB800D8A061EF1DF063EF1DF067EF1DF0000E59
:103AC800CB6F010ECA6FF2A46CEF1DF06EEF1DF004
:103AD80098EF1DF0010E0001CE25CE6F000ECF210C
:103AE800CF6FEB0ECE5D010ECF59D8A07EEF1DF043
:103AF80080EF1DF084EF1DF0000ECF6F000ECE6F2B
:103B0800AD51CE5D000ECF59D8B08DEF1DF08FEFBF
:103B18001DF092EF1DF08C8093EF1DF08C90000E3D
:103B2800D76E320ED66EF2945C9211000001D0A1CD
:103B3800A0EF1DF0A2EF1DF0AAEF1DF010C009F0D4
:103B480011C00AF00FC00BF01BEC21F013BEB1EF4F
:103B58001DF0AFEF1DF0B5EF1DF0000E136E000E57
:103B6800126E000E166E000E156EC5EF1DF0000EDB
:103B7800026E200E016E0FC003F0A2EC1CF0154A75
:103B8800162A1250155C1650800A146E1350800ABB
:103B98001458D8A0D2EF1DF0D4EF1DF0BBEF1DF0E4
:103BA8000001D0B1DAEF1DF0DCEF1DF0E4EF1DF0FD
:103BB80010C009F011C00AF00FC00BF01BEC21F087
:103BC8001200000E086E000E076E000E066E000E44
:103BD800056E81A4F2EF1DF0F4EF1DF0EDEF1DF07E
:103BE800780EE82EFED781A4FCEF1DF0FEEF1DF045
:103BF8000CEF1EF0010E07C003F008C004F0D890C7
:103C0800033604360310076E0450086E11EF1EF0D9
:103C1800D8900734076E0834086E81B416EF1EF08A
:103C280018EF1EF011EF1EF0054A062A06BE26EF11
:103C38001EF0065009E1080E055CD8A026EF1EF01C
:103C480028EF1EF0EDEF1DF007C001F008C002F0EC
:103C58001200210E91EC22F0000E91EC22F07F0E62
:103C680091EC22F0220E91EC22F0000E91EC22F061
:103C7800070E91EC22F0000E056E000E046E0BECA0
:103C880023F0780ED4EC22F0400ED4EC22F0036A34
:103C98009D0E0424D96E010E0520DA6EDF50D4EC97
:103CA80022F0044A052A032A0F0E03645EEF1EF071
:103CB80060EF1EF04CEF1EF00406D8A0050601ECDC
:103CC80023F0044A052A040E055CD8A06EEF1EF006
:103CD80070EF1EF043EF1EF012009396A0EC22F056
:103CE800000EFBEC20F0EDEC1BF0590E016E7D0E82
:103CF800026E20EC1FF0000E326E050E316E000EC3
:103D0800346E070E336E9E0E356E7F0E366EA0EC47
:103D18001AF02DEC1EF0F7EC22F0020E046E190ECC
:103D2800056E020E066E0D0E076E1E0E086E000E54
:103D3800096E0A0E88EC1FF05C0E3C6E510E3B6E4D
:103D4800600EE82EFED73B2EFCD73C2EFAD700D0CB
:103D5800C7EC22F082EC22F01200000E076E000E73
:103D6800066E03500410D8B4BCEF1EF0BEEF1EF070
:103D7800E6EF1EF0010E056EC6EF1EF0D890033672
:103D88000436052A04AECBEF1EF0CDEF1EF0C2EFCD
:103D98001EF0D890063607360350015C04500258CE
:103DA800D8A0D9EF1EF0DBEF1EF0E0EF1EF00350B5
:103DB800015E0450025A0680D89004320332052E60
:103DC800CDEF1EF006C001F007C002F01200920EFF
:103DD800F66E1B0EF76E000EF86E01EE9DF014EEF7
:103DE80000F00900F5CFEEFFE550E150FAE1E250AE
:103DF800F8E11C0EF66E410EF76E000EF86E01EE3D
:103E080050F010EE4DF00900F5CFEEFFE550E1500F
:103E1800FAE101EE00F0500EEE6AE806FDE100EE70
:103E2800ADF0490EEE6AE806FDE15C905C92000E8A
:103E3800F86E000173EF22F001C0B5F002C0B6F0D1
:103E480001C0F6FF02C0F7FF0800F5CFB7F0010E7A
:103E58000124036E000E0220046E03C0F6FF04C0A6
:103E6800F7FF0800F5CFB8F0020E0124036E000E2C
:103E78000220046E03C0F6FF04C0F7FF0800F5CF68
:103E8800B9F0030E0124036E000E0220046E03C075
:103E9800F6FF04C0F7FF0800F5CFBAF00001BB6BCE
:103EA8001200000E0E6E0A0E0D6E69EF1FF00DC0A7
:103EB80001F00EC002F0000E046E0A0E036E3DEC17
:103EC80022F001C00DF002C00EF00D50095C0E503A
:103ED8000A58D8B072EF1FF074EF1FF05BEF1FF0B5
:103EE8000D500702F3CF0BF0F4CF0CF00802F3509B
:103EF8000C260E500702F3500C2609500B24076EAF
:103F08000A500C20086E12000A6E099E3F0E071612
:103F18000BEC23F0D00ED4EC22F0000ED4EC22F0FF
:103F28000950FDEC21F0D4EC22F00850FDEC21F012
:103F3800D4EC22F00750FDEC21F0D4EC22F006502E
:103F4800FDEC21F0D4EC22F00A50FDEC21F0D4EC89
:103F580022F00450FDEC21F0D4EC22F00550FDECE9
:103F680021F0D4EC22F001EC23F0120003500410ED
:103F7800D8B4C1EF1FF0C3EF1FF0E7EF1FF0010E39
:103F8800056ECBEF1FF0D89003360436052A04AE31
:103F9800D0EF1FF0D2EF1FF0C7EF1FF00350015C06
:103FA80004500258D8A0DBEF1FF0DDEF1FF0E1EF5F
:103FB8001FF00350015E0450025AD89004320332B5
:103FC800052ED2EF1FF001C001F002C002F012006E
:103FD80004BEF1EF1FF0F3EF1FF0FDEF1FF001C07B
:103FE80001F002C002F003C003F004C004F016EFB1
:103FF80020F001C005F002C006F003C007F004C0BD
:1040080008F0051E061E071E081E052A000E0622B9
:104018000722082205C001F006C002F007C003F01D
:1040280008C004F0120003C00AF004C00BF001C07D
:1040380008F002C009F031EF20F00AC0D9FF0BC028
:10404800DAFFDF50076E0A4A0B2A08C0D9FF09C0F9
:10405800DAFF07C0DFFF084A092A0506D8A00606C6
:10406800052806E10628D8A43CEF20F03EEF20F012
:1040780021EF20F012000750D96EDA6A030EE6EC41
:1040880021F07F0B62EC22F0DF6E0450D96EDA6A01
:10409800040EE6EC21F03F0B62EC22F0DF6E0550D7
:1040A800D96EDA6A050EE6EC21F01F0B62EC22F0FD
:1040B800DF6E0650D96EDA6A060EE6EC21F062EC85
:1040C80022F0DF6E120001C003F002C004F06FEFAF
:1040D80020F0014A022A01C0F6FF02C0F7FFF86A81
:1040E800070EF76403D00800F55005D0F6CFE1FFBE
:1040F800F7CFE2FFE7500009D8A485EF20F087EF5B
:1041080020F06DEF20F00350015C016E045002585E
:10411800026E1200446F6D696E676F0000000053F5
:104128006567756E64610000000054657263610024
:104138000000000000517561727461000000000009
:104148005175696E746100000000005365787461F0
:1041580000000000000053616261646F000000000D
:014168000056
:10416A0095C058F096C059F0C4EF20F094C052F0B0
:10417A00580E536E97C054F0556A8FEC07F058C02A
:10418A00F6FF59C0F7FF0800F5500009D8A4D0EF90
:10419A0020F0D2EF20F0BBEF20F0000E0001956F67
:1041AA00000E946F1200000E1E1A000E1F1A000E47
:1041BA00201A800E211A1AC001F01BC002F01CC07E
:1041CA0003F01DC004F01EC005F01FC006F020C099
:1041DA0007F021C008F034EC05F001C01AF002C063
:1041EA001BF003C01CF004C01DF01200016E938284
:1041FA00938001C0C7FF280EC66EC56A800E0118DB
:10420A00D8A40AEF21F00CEF21F010EF21F0770E7D
:10421A00C86E1AEF21F00150D8A416EF21F018EF5A
:10422A0021F01AEF21F01D0EC86E1200000E0E6E5C
:10423A00000E0D6E2AEF21F00CC001F0026A0BC0CD
:10424A0003F0A2EC1CF00D4A0E2A0D500924D96E77
:10425A000E500A20DA6EDF500C6E0C50D8A438EFDC
:10426A0021F03AEF21F021EF21F012000650D96E29
:10427A00DA6A000EE6EC21F07F0B62EC22F0DF6EC8
:10428A000550D96EDA6A010EE6EC21F07F0B62EC7A
:10429A0022F0DF6E0450D96EDA6A020EE6EC21F0E3
:1042AA003F0B62EC22F0DF6E12009B0E0001A16F41
:1042BA0098C0A2F0000EA56F000EA46F000EAC6F9E
:1042CA00000EAB6FA20E946F99C095F09AC096F04B
:1042DA00A10E976FB5EC20F000019851A425D96E74
:1042EA00DA6ADF6A120001C007F002C008F086EF3E
:1042FA0021F007C0D9FF08C0DAFF03C0DFFF074A71
:10430A00082A0506D8A00606052806E10628D8A424
:10431A0091EF21F093EF21F07EEF21F0120001C01E
:10432A0005F002C006F003C0F6FF04C0F7FF034A17
:10433A00042A05C0D9FF06C0DAFF054A062A080082
:10434A00F5CFDFFFDF50D8A4ADEF21F0AFEF21F0BA
:10435A0098EF21F012000150021003100410D8B493
:10436A00B9EF21F0BBEF21F0C3EF21F0000E011AE3
:10437A00000E021A000E031A800E041A01C001F080
:10438A0002C002F003C003F004C004F0120002BE2F
:10439A00D1EF21F0D3EF21F0D9EF21F001C001F0E4
:1043AA0002C002F0E5EF21F001C003F002C004F000
:1043BA00031E041E034A042A03C001F004C002F0CB
:1043CA001200026E0BEC23F0D00ED4EC22F0025055
:1043DA00D4EC22F015EC23F0D10ED4EC22F0E1EC6F
:1043EA0022F0036EECEC22F001EC23F003501200F1
:1043FA00016E01C003F0026A090E036407EF22F09E
:10440A0009EF22F00FEF22F00A0E035E100E0226C9
:10441A0001EF22F0035002260250120081B418EF75
:10442A0022F01AEF22F013EF22F081A41FEF22F0FC
:10443A0021EF22F01AEF22F081B426EF22F028EFC2
:10444A0022F021EF22F0120093948A94020E026E57
:10445A00380E016EAD0EE82EFED7012EFCD7022EC5
:10446A00FAD700008A84780EE82EFED793841200C9
:10447A0001500302F3CF05F0F4CF06F00150040215
:10448A00F350062602500302F350062605C001F037
:10449A0006C002F01200096E09502E0DF3CF01F08A
:1044AA00F4CF02F0000E046EB40E036E8CEC1BF017
:1044BA0001500E0F0001AD6F1200026E02C003F030
:1044CA00D8900332780E031602C001F00F0E0116BF
:1044DA000340E8423F0B01240324120071EC1EF052
:1044EA00640E50EC22F017EC1BF071EC16F030EC75
:1044FA0017F078EF22F007EF00F09D0E016E010E23
:10450A00026E000E046E000E036E040E066E000E9E
:10451A00056E78EC21F01200026E0BEC23F0780E97
:10452A00D4EC22F0000ED4EC22F00250D4EC22F0AB
:10453A0001EC23F0120095908C90F28EF28AF2949C
:10454A00500ED56ED58E000ED76E320ED66E120074
:10455A0081863D0E026EE10E016E400EE82EFED7F8
:10456A00012EFCD7022EFAD7120081883D0E026E68
:10457A00E10E016E400EE82EFED7012EFCD7022E68
:10458A00FAD7120081963D0E026EE10E016E400EC0
:10459A00E82EFED7012EFCD7022EFAD71200016EA2
:1045AA0001C0C9FF9EA6DCEF22F0DEEF22F0D7EFB2
:1045BA0022F09E96C5501200C5869EA6E7EF22F00D
:1045CA00E9EF22F0E2EF22F09E96C9501200C58A66
:1045DA00C5889EA6F3EF22F0F5EF22F0EEEF22F067
:1045EA009E961200F28C9E90B00ECD6ECD80FA0E81
:1045FA00CF6E1E0ECE6E1200C5849EA607EF23F064
:10460A0009EF23F002EF23F09E961200C5809EA6C2
:10461A0011EF23F013EF23F00CEF23F09E96120014
:10462A00C5829EA61BEF23F01DEF23F016EF23F0A1
:0E463A009E961200800E1200400E120012001A
:106B4800001010205F00000000000000000000009E
:106B5800000000000000000000000000000000002D
:106B6800000000000000000000F8FCFCFCF8000039
:106B780000000000000000000000737373000000B4
:106B88000000000000000000001E3E3E0000003E25
:106B98003E1E000000000000000000000000000091
:106BA800000000000000303030FEFE30303030FE93
:106BB800FE30303000000C0C0C7F7F0C0C0C0C7F6E
:106BC8007F0C0C0C00000000F0F898FE9898FE98D6
:106BD80098180000000000001819197F19197F196A
:106BE8001F0F0000000000000038383880C0E07037
:106BF8003800000000000000001C0E0703011C1CE8
:106C08001C0000000000000038FCC4C4FC38000070
:106C180000800000000000001E3F2121333F1E1E9F
:106C2800372300000000000000203C3C1C0000004E
:106C3800000000000000000000000000000000004C
:106C4800000000000000000000C0E0F0381C0C0448
:106C580004000000000000000003070F1C3830206B
:106C680020000000000000000004040C1C38F0E0C4
:106C7800C00000000000000000202030381C0F0772
:106C880003000000000000808890E0E0FCFCE0E0E9
:106C98009088800000000001110907073F3F07079F
:106CA800091101000000000000808080F0F0808061
:106CB8008000000000000000000101010F0F010129
:106CC80001000000000000000000000000000000BB
:106CD8000000000000000000004078783800000044
:106CE800000000000000000080808080808080809C
:106CF8008080000000000000010101010101010184
:106D08000101000000000000000000000000000079
:106D180000000000000000000000383838000000C3
:106D2800000000000000000000000000000080C01B
:106D3800E070381C000000002030381C0E070301EA
:106D48000000000000000000F8FCFC0484E474FC6F
:106D5800FCF80000000000001F3F3F2E2721203FC5
:106D68003F1F000000000000606060F0FCFC0000B5
:106D780000000000000000002020203F3F3F2020AE
:106D88002000000000000000181C1C040484CCFC37
:106D9800783000000000000030383C2E27232138CE
:106DA8003838000000000000181C1C848484CC7C47
:106DB8007830000000000000183838212121333EC7
:106DC8001E0C00000000000080C0603018FCFCFCB5
:106DD800000000000000000003030323233F3F3F9F
:106DE8002323000000000000FCFCFC8484848484CD
:106DF8000404000000000000193939212121333F23
:106E08001F0E000000000000E0F0F89C8C848484D1
:106E180080000000000000001F3F3F212121213F8A
:106E28003F1F0000000000003C3C3C0404040484B4
:106E3800FCFC7C0000000000000000383C3E07031A
:106E48000100000000000000787CFCC4C48484FCBD
:106E58007C780000000000001E3E3F212123233FD4
:106E68003E1E000000000000F8FCFC84848484FCC2
:106E7800FCF8000000000000000121212131391F29
:106E88000F07000000000000000000707070000094
:106E980000000000000000000000000E0E0E0000C0
:106EA800000000000000000000000070707000008A
:106EB80000000000000000000000101E1E0E000070
:106EC800000000000000000080C0E070381C0E06C2
:106ED80002000000000000000103070E1C3870606B
:106EE80040000000000000606060606060606060FA
:106EF8006060600000000006060606060606060634
:106F0800060606000000000002060E1C3870E0C0ED
:106F18008000000000000000406070381C0E07036D
:106F28000100000000000000181C0C0E0686CEFCB4
:106F38007C3800000000000000000000737373003C
:106F48000000000000000000FCFEFE0202C2C2C2F7
:106F5800FEFEFC00000000003F3F7F60606363634B
:106F68006343030000000000E0F0F81C0C0C1CF860
:106F7800F0E00000000000003F3F3F020202023F35
:106F88003F3F00000000000004FCFCFC848484FCFB
:106F9800FC78000000000000203F3F3F2121213FF6
:106FA8003F1E000000000000F0F8FC0C0404041C64
:106FB8001C180000000000000F1F3F302020203860
:106FC800381800000000000004FCFCFC04040CFC61
:106FD800F8F0000000000000203F3F3F2020303F35
:106FE8001F0F00000000000004FCFCFC848484C423
:106FF800CC1C000000000000203F3F3F212121233E
:10700800333800000000000004FCFCFC848484C4C5
:10701800CC1C000000000000203F3F3F210101037D
:107028000300000000000000F0F8FC0C0404043C1D
:107038003C380000000000000F1F3F302022223E95
:107048003E3E000000000000FCFCFC808080FCFC50
:10705800FC000000000000003F3F3F0101013F3FEE
:107068003F00000000000000000404FCFCFC0404D5
:1070780000000000000000000020203F3F3F2020CB
:107088000000000000000000000000000404FCFCF8
:10709800FC0404000000001E1E3E202020203F3F6C
:1070A8001F0000000000000004FCFCFCC0E0703C75
:1070B8001C0C000000000000203F3F3F03070E3C6F
:1070C800383000000000000004FCFCFC0400000054
:1070D8000000000000000000203F3F3F202020303B
:1070E800383C000000000000FCFCFC78F0E0F07880
:1070F800FCFCFC00000000003F3F3F0000010000D6
:107108003F3F3F0000000000FCFCFC70E0C0800036
:10711800FCFCFC00000000003F3F3F0000010307AB
:107128003F3F3F0000000000E0F0F81C0C0C0C1C76
:10713800F8F0E00000000000070F1F38303030384A
:107148001F0F07000000000004FCFCFC848484FC82
:10715800FC78000000000000203F3F3F21010101B2
:107168000100000000000000E0F8F81C0C040C1CF2
:10717800F8F8E00000000000071F1F18185C5E7E8A
:107188007F7F47000000000004FCFCFC848484FC32
:10719800FC78000000000000203F3F3F0101033F52
:1071A8003F3C00000000000078FCFC84848484BC20
:1071B8003C380000000000001C3C3D212121213FFB
:1071C8003F1E0000000000001C0C0404FCFCFC0432
:1071D800040C1C0000000000000020203F3F3F205E
:1071E8002000000000000000FCFCFC000000FCFC8B
:1071F800FC000000000000001F3F3F2020203F3F10
:107208001F00000000000000FCFCFC000000FCFC6B
:10721800FC00000000000000070F1F3830381F0F67
:107228000700000000000000FCFCFC0000800000DB
:10723800FCFCFC0000000000030F3F3C3C0F3C3C02
:107248003F0F0300000000001C3C7CE0C0E07C3CD9
:107258001C00000000000000383C3E0703073E3CCD
:1072680038000000000000007CFCFC800080FCFC72
:107278007C000000000000000020213F3F3F21204B
:1072880000000000000000003C1C0C0484C4E47CE6
:107298003C1C000000000000383C3E272321203021
:1072A800383C0000000000000000FCFCFC04040462
:1072B800040000000000000000003F3F3F202020A5
:1072C80020000000000000001C3870E0C0800000B2
:1072D8000000000000000000000000000103070E8D
:1072E8001C18302020000000000004040404FCFCEA
:1072F800FC000000000000000000202020203F3F8C
:107308003F000000000000002030381C0E0E1C3822
:107318003020000000000000000000000000000015
:107328000000000000000000000000000000000055
:10733800000000000000C0C0C0C0C0C0C0C0C0C0C5
:10734800C0C0C0C0C00000000C0C3C3030000000C1
:107358000000000000000000000000000000000025
:107368000000000000000000004040404040C0C055
:1073780080000000000000001C3E3E2222223F1F29
:107388003F2000000000000004FCFCFC404040C01E
:10739800C080000000000000203F1F3F2020203F49
:1073A8003F1F00000000000080C0C0404040C0C037
:1073B80080000000000000001F3F3F2020203939D6
:1073C800190000000000000080C0C0404044FCFCE0
:1073D800FC040000000000001F3F3F2020203F1F4A
:1073E8003F2000000000000080C0C0404040C0C0F6
:1073F80080000000000000001F3F3F2222223B3B8C
:107408001B000000000000008080F8FCFC849C9CAD
:10741800180000000000000021213F3F3F2121010A
:10742800000000000000000080C0C0404040C08054
:10743800C04000000000000047CFDF989898FFFF89
:107448007F0000000000000004FCFCFC804040C0FD
:10745800C080000000000000203F3F3F0100003FC7
:107468003F3F00000000000000404040DCDCDC0042
:107478000000000000000000002020203F3F3F20C7
:107488002020000000000000000000404040DCDC3C
:10749800DC000000000000002060E08080C0FFFFEA
:1074A8007F0000000000000004FCFCFC000080C01D
:1074B800C040000000000000203F3F3F02070F3D92
:1074C800383000000000000000040404FCFCFC004C
:1074D8000000000000000000002020203F3F3F2067
:1074E8002020000000000000C0C0C04040C0404054
:1074F800C0C08000000000003F3F3F00003F000088
:107508003F3F3F0000000000C0C0C0404040C0C036
:1075180080000000000000003F3F3F0000003F3FA8
:107528003F0000000000000080C0C0404040C0C0D4
:1075380080000000000000001F3F3F2020203F3F48
:107548001F0000000000000040C080C0404040C054
:10755800C08000000000000080FFFFFF9010101F97
:107568001F0F000000000080C0C0404040C080C025
:10757800400000000000000F1F1F101090FFFFFFC9
:10758800800000000000000040C0C0C080C0C0C033
:10759800C080000000000000203F3F3F21000001A4
:1075A800010100000000000080C0C040404040C011
:1075B8008000000000000000193B232626263C3DE1
:1075C80019000000000000004040E0F0F840404092
:1075D800400000000000000000001F3F3F20383836
:1075E8001800000000000000C0C0C0000000C0C0BB
:1075F800C0000000000000001F3F3F2020203F1F68
:107608003F20000000000000C0C0C0000000C0C053
:10761800C000000000000000070F1F3830381F0F9F
:107628000700000000000000C0C0C000000000000B
:10763800C0C0C00000000000070F3F38380E3838BF
:107648003F0F070000000000C0C0C00000C0C0C05D
:10765800000000000000000030393F0F0F3F3930B4
:10766800000000000000000000C0C0C0000000C012
:10767800C0C000000000000080878F9FD8F8783FC6
:107688000F07000000000000C0C0404040C0C0C05C
:10769800000000000000000031383C2E272331385C
:1076A80000000000000000008080C0787C3C0404DA
:1076B80004040000000000000101031E3E3C2020DD
:1076C800202000000000000000000000FEFEFE0078
:1076D8000000000000000000000000007F7F7F0025
:1076E8000000000000000000040404043C7C78C092
:1076F8008080000000000000202020203C3E1E0367
:1077080001010000000000383C3C040C1C3830200B
:107718003C3C1C00000000000000000000000000CD
:1077280000000000000810205F00000000000000BA
:10773800000000000000000000000000F800000049
:1077480000000000333000000000100C06100C068A
:1077580000000000000000000040C07840C07840F1
:1077680000043F04043F040400007088FC08300053
:1077780000001820FF211E0000F008F000E01800AB
:107788000000211C031E211E0000F0088870000064
:10779800001E2123241927211010160E00000000B6
:1077A800000000000000000000000000E0180402D3
:1077B80000000000071820400000020418E0000044
:1077C800000040201807000000404080F080404042
:1077D800000202010F01020200000000F000000098
:1077E800000101011F01010100000000000000006C
:1077F8000080B070000000000000000000000000E1
:107808000000010101010101010000000000000069
:107818000000303000000000000000000080601808
:1078280004006018060100000000E010080810E0DD
:1078380000000F102020100F00001010F8000000AA
:10784800000020203F2020000000700808088870F1
:107858000000302824222130000030088888483071
:10786800000018202020110E000000C02010F80091
:107878000000070424243F240000F808888808082A
:10788800000019212020110E0000E010888818003F
:1078980000000F112020110E0000380808C8380811
:1078A800000000003F000000000070880808887091
:1078B80000001C222121221C0000E010080810E012
:1078C800000000312222110F00000000C0C000009B
:1078D80000000000303000000000000080000000C0
:1078E80000000080600000000000008040201008B8
:1078F8000000010204081020004040404040404081
:10790800000404040404040400000810204080005B
:10791800000020100804020100007048080808F060
:10792800000000003036010000C030C828E810E030
:10793800000718272423140B000000C038E00000BB
:1079480000203C23020227382008F8888888700025
:1079580000203F202020110E00C0300808080838F9
:1079680000071820202010080008F808080810E070
:1079780000203F202020100F0008F88888E8081011
:1079880000203F20202320180008F88888E80810E5
:1079980000203F200003000000C03008080838001D
:1079A8000007182020221E020008F808000008F826
:1079B80008203F210101213F20000808F80808009D
:1079C800000020203F2020000000000808F80808D8
:1079D80000C08080807F00000008F888C028180850
:1079E80000203F20012638200008F8080000000089
:1079F80000203F20202020300008F8F800F8F80880
:107A080000203F003F003F200008F830C00008F881
:107A180008203F200007183F00E01008080810E081
:107A2800000F10202020100F0008F808080808F0A0
:107A380000203F210101010000E01008080810E0C3
:107A4800000F18242438504F0008F8888888887058
:107A580000203F2000030C302000708808080838F8
:107A6800000038202121221C00180808F8080818EE
:107A7800000000203F2000000008F808000008F877
:107A880008001F202020201F000878880000C83820
:107A980008000007380E010000F80800F80008F890
:107AA80000033C0700073C0300081868808068183A
:107AB8000820302C03032C30200838C800C83808A8
:107AC800000000203F2000000010080808C83808FF
:107AD800002038262120201800000000FE020202A3
:107AE800000000007F40404000000C30C000000053
:107AF80000000000010638C00000020202FE00007B
:107B080000004040407F0000000000040202020420
:107B1800000000000000000000000000000000005D
:107B28000080808080808080800002020400000045
:107B3800000000000000000000000080808080003D
:107B4800000019242222223F2008F800808000002B
:107B580000003F112020110E0000000080808000EE
:107B680000000E112020201100000000808088F8FD
:107B780000000E112020103F20000080808080002F
:107B880000001F222222221300008080F0888888AB
:107B9800180020203F202000000000808080808086
:107BA80000006B94949493600008F8008080800033
:107BB80000203F210000203F20008098980000000E
:107BC800000020203F20200000000000809898003E
:107BD8000000C08080807F000008F800008080805E
:107BE80000203F24022D302000000808F800000083
:107BF800000020203F20200000808080808080803E
:107C080000203F20003F20003F80800080808000CF
:107C180000203F210000203F20000080808080005D
:107C280000001F202020201F00808000808000008E
:107C38000080FFA12020110E0000000080808080BD
:107C480000000E112020A0FF8080808000808080AE
:107C58000020203F212000010000008080808080DB
:107C6800000033242424241900008080E080800050
:107C7800000000001F20200000808000000080809D
:107C880000001F202020103F20808080000080807E
:107C98008000010E3008060100808000800080808E
:107CA800800F300C030C300F000080800080808033
:107CB800000020312E0E312000808080000080805E
:107CC8008080818E7018060100008080808080800E
:107CD800000021302C2221300000000000807C02AE
:107CE8000200000000003F404000000000FF0000CC
:107CF8000000000000FF0000000002027C8000007D
:107D0800000040403F00000000000601010202049C
:107D18000400000000000000000406300A3E51493B
:107D28003E00427F406251494622494936181412A2
:107D38007F274545393E4949320171090736494986
:107D4800362649493E00363600040A0A0400000077
:107D5800000608205F0000000000000000002F005F
:107D68000000000700070000147F147F1400242A75
:107D78007F2A1200231308646200364955225000F6
:107D8800000503000000001C224100000041221CE5
:107D9800000014083E08140008083E080800000007
:107DA800A0600000080808080800006060000000E3
:107DB8002010080402003E5149453E0000427F4021
:107DC80000004261514946002141454B31001814D9
:107DD800127F10002745454539003C4A4949300083
:107DE8000171090503003649494936000649492900
:107DF8001E00003636000000005636000000081449
:107E08002241000014141414140000412214080024
:107E1800020151090600324959513E007C121112E3
:107E28007C007F49494936003E41414122007F415B
:107E380041221C007F49494941007F090909010085
:107E48003E4149497A007F0808087F0000417F4188
:107E580000002040413F01007F08142241007F407C
:107E6800404040007F020C027F007F0408107F0022
:107E78003E4141413E007F09090906003E4151212A
:107E88005E007F0919294600464949493100010128
:107E98007F0101003F4040403F001F2040201F005D
:107EA8003F4038403F006314081463000708700817
:107EB8000700615149454300007F41410000552AB0
:107EC800552A55000041417F0000040201020400C8
:107ED8004040404040000001020400002054545437
:107EE80078007F48444438003844444420003844EB
:107EF80044487F00385454541800087E0901020091
:107F080018A4A4A47C007F080404780000447D40E1
:107F180000004080847D00007F102844000000415C
:107F28007F4000007C04180478007C080404780072
:107F3800384444443800FC24242418001824241805
:107F4800FC007C0804040800485454542000043FF2
:107F5800444020003C4040207C001C2040201C0065
:107F68003C4030403C004428102844001CA0A0A0FD
:107F78007C004464544C4400000877000000000072
:107F88007F000000007708000000100810080014A7
:107F9800141414141400494E494349414C495A4198
:107FA8004E444F2E2E2E00253032752F2530327537
:107FB8002F323025303275007C20253032753A2535
:107FC8003032753A253032750048756D3A202530C3
